:020000022000DC
:106000000000012019620200016202000362020026
:10601000056202000762020009620200000000003F
:106020000000000000000000000000000B62020001
:106030000D620200000000000F6202001162020007
:10604000A59F0200136202003DA602001362020037
:106050001362020013620200BDA30200F1A8020055
:1060600013620200F1AD020005AE020013620200ED
:106070001362020013620200136202001362020044
:10608000136202004DB602001362020013620200A6
:1060900013620200097A02001DCC020013620200A2
:1060A000136202001362020019AE020013620200C2
:1060B000B9A8020013620200000000000000000006
:1060C00013620200C9A802001362020013620200F8
:1060D000136202001362020013620200000000005B
:1060E00000000000000000000000000000000000B0
:1060F00000000000000000000000000000000000A0
:10610000000000000000000000000000000000008F
:10611000000000000000000000000000000000007F
:10612000000000000000000000000000000000006F
:10613000000000000000000000000000000000005F
:10614000000000000000000000000000000000004F
:10615000000000000000000000000000000000003F
:10616000000000000000000000000000000000002F
:10617000000000000000000000000000000000001F
:10618000000000000000000000000000000000000F
:1061900000000000000000000000000000000000FF
:1061A00000000000000000000000000000000000EF
:1061B00000000000000000000000000000000000DF
:1061C00000000000000000000000000000000000CF
:1061D00000000000000000000000000000000000BF
:1061E00000000000000000000000000000000000AF
:1061F000000000000000000000000000000000009F
:10620000FEE7FEE7FEE7FEE7FEE7FEE7FEE7FEE766
:10621000FEE7FEE700F002B8FFF7FCBF0F484FF0C3
:106220000701884385460E4880470E48016841F4BF
:1062300070010160BFF34F8FBFF36F8F00F01AB88A
:1062400009480A490A4A884207D0521A05D00378F9
:1062500001300B700131013AF9D170470000012083
:10626000A184020088ED00E044D20200D08D00201D
:10627000D08D00203A493B480A1A02D007229143A8
:106280008D46394939480A1A06D00722914381F3CD
:106290000988022282F3148835483649364A00F0CC
:1062A00041F836483649374A00F03CF83648374915
:1062B000374A00F037F837483749384A00F032F8A3
:1062C00037483849384A00F02DF838483849394AB3
:1062D00000F028F838483949394A00F023F839489D
:1062E0003949002200F036F838483949002200F0D8
:1062F00031F838483849091A06F03EFE374A9047C7
:1063000025482649884205D00268043003B49047E6
:1063100003BCF7E700208646EC4600200021304A07
:106320009047FEE7884214D0521A12D003460B431E
:1063300013430324234206D1036804300B60043165
:10634000043AF9D17047037801300B700131013AFA
:10635000F9D17047884202D002700130FAE77047E5
:106360000000012000E000200000012000000120CA
:10637000E0E70200D08D0020588E0020E463020088
:10638000E4630200B0D00200E0E70200D08D0020FC
:10639000D08D002044D2020044D2020044D2020038
:1063A00044D2020044D2020044D2020044D202008D
:1063B00044D20200DDE7020068E80200588E0020A7
:1063C000588E0020588E002054BF002054BF00205B
:1063D00054BF002054BF002054DF0020416202005F
:0463E000E97D020051
:1063E40072DF704773DF704776DF70477ADF70477C
:1063F4007CDF70477FDF70478FDF7047ACDF70470B
:10640400B1DF704745DF70470023074807491A4644
:10641400C254CA541433B3F5206FF9D1044880220E
:10642400002106F013BE00BF9896002098A000201B
:1064340018960020F0B50B4D0B4F02460023802028
:1064440015F8016BDCB23EB1964206D137F8136001
:106454008E4202D1204603E020460133802BEFD147
:10646400F0BD00BF189600201895002004F0DCBC95
:1064740008B5054B01211878FFF7B4FF18B1BDE842
:10648400084004F0D1BC08BD1C8E0020094B0A480A
:10649400C01AC00810B500040A460C4640F00300B8
:1064A400064906F0EBF80E2C9EBF054B01221A5547
:1064B40010BD00BF94D10200DCD1020044D202001E
:1064C400C4AE00202DE9F047224B234C2349DFF8CA
:1064D4009480DFF894A0E41AE408240444F003044C
:1064E4008CB002460546204606F0C8F81C4B012233
:1064F4001A201A7003F04DFE1D2003F043FE01A87C
:1065040002F048FD002643F20209019AF3B29A42CE
:1065140002D80CB0BDE8F0870CAA02EB4303414655
:1065240033F8287C2A46384603F0F0F948450ED063
:1065340008280CD043F20142904208D008B104F07C
:1065440073FC3B462A465146204606F0A0F8013625
:10655400DBE700BF94D10200DCD1020057D2020075
:10656400AFAA0020A4B000206ED2020008B50748EC
:10657400074B0849C01AC008000440F0030006F0A5
:1065840079F8BDE808400220FFF79CBFDCD1020087
:1065940094D1020099D202000448054B0549C01A5F
:1065A400C008000440F0030006F064B8DCD1020027
:1065B40094D10200BBD202000448054B0549C01A1D
:1065C400C008000440F0030006F054B8DCD1020017
:1065D40094D10200D7D202000C4B0D4A9B1ADB085F
:1065E4001B04032810D8DFE800F00207090D09494D
:1065F40043F0030006F03EB80749F9E7074943F0C2
:106604000100F7E70649FAE70649F8E7DCD102009A
:1066140094D10200F3D2020021D3020044D3020039
:106624007CD30200A9D302002DE9F04F00248FB0DF
:1066340002A9204604F0A6FA08B104F0F5FB0DF116
:106644000A01012004F09EFA08B104F0EDFBBDF943
:106654000820BDF90A1042F2D8039A4245DDAE483B
:10666400AE4A801AC0080004994240F0030037DDA6
:10667400AB4905F0FFFF0520FFF724FFA94D2B7858
:106684001BB3A94B1B78002B00F02181A74B1E786C
:10669400B31E012B6AD803A802F07CFC9E4C9F4BCE
:1066A400A34FDFF8AC82E41AE408240444F00304A2
:1066B4000026039AF3B2934234D39E4B00221A70FD
:1066C400002318202B7003F064FD9B48002208214E
:1066D40004F05FFD08B104F0A7FB0FB0BDE8F08F34
:1066E400964905F0C7FF0320C6E799420BDD8B4BA3
:1066F40089489349C01AC008000440F0030005F01B
:10670400B9FF0420B8E70A449A42B7DD834B8248B4
:106714008C49C01AC008000440F0030005F0AAFF29
:106724000620A9E70EAA02EB4303874933F8289C05
:1067340098F800203B78484603F09EF843F20202A2
:10674400904211D008280FD043F2014290420BD05E
:1067540008B104F069FBCDF8009098F800303A785D
:106764007A49204605F09DFF0136A2E7012E5ED14D
:10677400774F694C3B78DFF8A4814BB9754E32886A
:10678400FE2A05D8744B1B78032B39D17E2A37D9BE
:1067940003A8A4EB0804E40802F0FCFB2404DFF8DB
:1067A400B491DFF8A4A1DFF888B144F00304002613
:1067B400039AF3B29A4280D90EAA02EB43035146DC
:1067C40033F8288C3A7899F80030404603F054F8AE
:1067D40043F20202904211D008280FD043F2014242
:1067E40090420BD008B104F01FFBCDF800809BF859
:1067F40000303A785949204605F053FF0136D7E76F
:10680400A4EB0800C0080004554940F0030005F05B
:1068140035FF3388534A013333800021084604F09E
:106824006BFB00283FF44CAF04F0FEFA48E7002E5F
:106834007FF446AF464BDFF84C814B4F98F800206D
:106844001B783978344C03FA02F001433970334928
:10685400641AE4082404062A44F003042BD903A888
:1068640002F098FBDFF8E090DFF81CA1039AF3B282
:106874009A427FF622AF0EAA02EB4303494633F84D
:10688400288C3B780122404602F0F6FF43F20202D4
:1068940090420ED008280CD043F20142904208D016
:1068A40008B104F0C1FA3A7843465146204605F04F
:1068B400EEFE0136DAE72D49204605F0E8FE98F8A9
:1068C4000030284A013388F800303146A6E7284BC7
:1068D4001B78002B5AD11048104BBDF908402549AC
:1068E400C01AC0080004224640F0030005F0C6FEAA
:1068F400214A224B1178002958D01C8000231370A0
:106904000548064B1E49C01AC008000440F00300A5
:1069140005F0B0FED9E600BFDCD1020094D102003C
:10692400D0D30200AAAA0020ABAA0020A4AA002067
:10693400A0AA0020A7AA002018AF0020F7D30200C5
:106944000ED402002CD40200A4B000205AD40200B9
:10695400A9AA00209EAA0020A3AA0020B6D402005F
:1069640007D50200E96F02009CAA00207DD5020031
:10697400A5AA00208FD50200AEAA0020ACAA002050
:10698400D9D502009DAA00203ED50200012B09D1D1
:106994001348144BBDF90A401349C01AC008000437
:1069A4002246A1E70A2004F03FFAA1E7B3F9003038
:1069B40003F21D1294427FF788AE0C4A0848012165
:1069C4001170084A0A49801AC00840F21D120004D6
:1069D400009240F00300224605F063FE75E600BF16
:1069E400DCD1020094D10200B4D50200A9AA00208F
:1069F400F7D5020070B5044668B11F4A1F4B204901
:106A04009B1ADB081B04026843F0030005F036FE02
:106A1400206803F0BEFB1B4B00251E4613F8012B18
:106A240022B3154B154C1849E41AE408240444F025
:106A340003042A46204605F021FE00237355134E15
:106A4400134956F82520204605F018FE56F825006F
:106A540003F098FB06EB85020E484FF4804104F0E6
:106A640098FB38B1BDE8704004F0DEB901350F2D54
:106A7400D4D1F1E770BD00BF94D10200DCD1020093
:106A840028D60200C4AE00203BD60200D08D0020E0
:106A940054D6020038AF002070B586B001228DF8BC
:106AA4000F2002880023212A04468DF80E3000F0BE
:106AB400A7800AD8A2F11003032B0FD8113A022A97
:106AC40015D8DFE802F04CC59600522A00F09F80EA
:106AD40006D83B2A06D0502A00F09F8006B070BD2D
:106AE400562AFBD1A0881321FFF77EFC77E0604B88
:106AF400187803F089FD08B104F096F901211E20ED
:106B040003F07EFB5B4D02F033FA5B4B5B49ED1AFD
:106B1400ED08238A00932D04638AA288064645F073
:106B2400030005F0BEFD564A002310464FF6FF71E0
:106B340055888D420DD10C22A18802FB030002F07E
:106B440097FC08B104F070F90F2EC7D8FFF790FC3A
:106B5400C4E70133102B02F10C02E9D1F4E702F08F
:106B640007FA444D444BA2884649ED1AED082D041A
:106B74000646237A45F0030005F089FD002E34D142
:106B84003B4B187803F028FD08B104F04DF9FFF7EA
:106B94003BFC3D4B3D4C00221F201A7003F0F9FAD8
:106BA40001230493618A0DF10E0304AA4FF6FF70CA
:106BB4000593FFF723FC08B104F036F91A2003F01B
:106BC400E8FA192003F0DEFA01230493618B0DF136
:106BD4000F0304AA4FF6FF700593FFF70FFC00287C
:106BE4003FF47CAF04F020F978E70F2E7FF476AF02
:106BF400ACE700231A4685218088FFF7FBFBEEE70C
:106C040004A98088ADF81030FFF7F6FBE7E71A46D1
:106C140019468088FFF7F4FBE1E7C3880D2B7FF466
:106C24005DAF038A022B7FF459AF837C022B7FF480
:106C340055AF114B0F48A2881549C01AC00800046B
:106C440040F0030005F01AFDA08802F079FAC6E7C7
:106C5400094B08480F49C01AC008238A009300044E
:106C6400638AA28840F0030005F01BFD36E700BFED
:106C7400D3AE0020DCD1020094D1020066D602001B
:106C840058AF0020C1D60200A6AA0020A4B000205C
:106C9400F5D6020034D702002DE9FF471F46214CE8
:106CA400214B9DF830909DF83480DFF8ACA000971C
:106CB400E41AE408240444F003041346CDE90198DB
:106CC4000E46154620460A46184905F0F6FC9AF881
:106CD400003023BB164B1B780BBB164A1380164A95
:106CE4001370164A1370164B1E70164B1D70164BFC
:106CF4001F70164B83F80090154B032E83F8008009
:106D04000DD82DB1013D022D09D816F0FD0F06D086
:106D14001049204605F0AEFC01238AF8003004B087
:106D2400BDE8F087DCD1020094D1020098D70200BC
:106D3400A7AA00209EAA00209DAA00209CAA0020A9
:106D4400A4AA0020A3AA0020A2AA0020A1AA00208D
:106D5400A0AA002020D80200A8AA00202DE9F04310
:106D6400254B264CE41AE408240444F003048DB0B3
:106D74000D460A462046224905F080FCFFF744FBF5
:106D8400ADB11A2003F005FA192003F0FBF901A8AC
:106D940002F000F91B4EDFF87480002543F202076D
:106DA400019AEBB29A420BD80DB0BDE8F0831920DA
:106DB40003F0EFF9144B1B78002BE8D11A20E4E719
:106DC4000CAA02EB4303314633F8289C484602F0F0
:106DD40087FDB8420DD008280BD043F201429042FF
:106DE40007D008B104F020F84A464146204605F091
:106DF40045FC0135D4E700BF94D10200DCD1020088
:106E04003FD80200A4B00020AFAA002057D8020047
:106E14002DE9F043224B234CE41AE408240444F003
:106E240003040A468DB00D4620461F4905F026FC92
:106E34001E4B9DB91F201D7003F0ABF901A802F091
:106E4400A9F81B4EDFF86C80002543F20207019A73
:106E5400EBB29A4208D80DB0BDE8F08301221F209E
:106E64001A7003F08FF9E9E70CAA02EB43033146E9
:106E740033F8289C484602F01DFDB8420DD008287E
:106E84000BD043F20142904207D008B103F0CCFF8B
:106E94004A464146204605F0F1FB0135D7E700BFDD
:106EA40094D10200DCD1020089D80200A6AA0020F5
:106EB400A4B00020B5D802002DE9F047454F9DF855
:106EC40020403E789DF824A09446751C424AEDB2B9
:106ED400342D127808BF0025AA42864688461846F3
:106EE4000B9B3CD03D49BAF1020F41EACE014FEA77
:106EF400086936D18EEA080C49EACC3C4CF480424D
:106F04004FF012084FF000404FF0010EDFF8D0C0F0
:106F1400142404FB06C4A260012262709DF8282098
:106F24006160003A4FF01E0118BF0122217484F8F9
:106F34001180E06084F812E0A27053B106EB86047D
:106F44000CEB84049E460FCCAEE80F002368CEF809
:106F5400003014235E4301230CF806303D70BDE875
:106F6400F087BAF1030F4FEACC320CD188EA0C0C4B
:106F74008EEA0C0C42EA8C1C4CEA090C4CF0200200
:106F84004FF01B08BEE742EA8012BAF1040F42EA4E
:106F940009020DD18CEA000088EA00008EEA0000A4
:106FA400000640F400004FF01B084FF0090EADE757
:106FB40060408CEA000C88EA0C0C8EEA0C0E200669
:106FC40040EACE3040F480404FF01B084FF0120EE0
:106FD4009CE700BFB1AA0020B0AA002000F0FFFF88
:106FE400B4AA00202DE9FF47A74B93F80080A74BD4
:106FF4000D461E78002940F0CA831424022700237A
:10700400CDE90255CDE900571A461946FF20013C47
:10701400FFF752FF14F0FF04F1D19D4B1D789D4BF7
:1070240048EA0629032D1F780FFA89F940F0B18147
:10703400002F43D102270023CDE90244CDE90047C4
:107044001A4619461846013DFFF736FF15F0FF05AD
:10705400F1D1914B06F003061F780395012346F006
:107064007C064FF00309CDE9019300952B463A467F
:1070740041463046FFF720FF0424CDE90255CDE90F
:10708400005900233A4641463046013CFFF714FFBD
:1070940014F0FF04F1D1062502260023CDE90244B1
:1070A400CDE900461A4619461846013DFFF704FF8C
:1070B40015F0FF05F1D104B0BDE8F087032F6FD1BF
:1070C4003E4602250023CDE90244CDE900451A4697
:1070D40019461846013EFFF7EFFE16F0FF06F1D100
:1070E4003446052502260023CDE90244CDE90046B5
:1070F4001A4601217D20013DFFF7DEFE15F0FF0554
:10710400F1D1062402260023CDE90255CDE900562B
:107114001A4619461846013CFFF7CEFE14F0FF0448
:10712400F1D102260023CDE90244CDE900461A46F6
:1071340019461846013FFFF7BFFE17F0FF07F1D1CC
:10714400554B1D780397012305F07F05CDE90163B5
:1071540000973B463A4629467820FFF7ADFE0424C3
:1071640002260023CDE90277CDE900761A462946A6
:107174007820013CFFF7A0FE14F0FF04F1D10A25AA
:1071840002260023CDE90244CDE900461A461946F9
:107194001846013DFFF790FE15F0FF05F1D18AE78F
:1071A400022F7BD1A9460023CDE90244CDE9004753
:1071B4001A461946184609F1FF39FFF77DFE19F002
:1071C400FF09F0D105264C4602270023CDE90244ED
:1071D400CDE900471A4601217D20013EFFF76CFEF0
:1071E40016F0FF06F1D1062402270023CDE902663A
:1071F400CDE900671A4619461846013CFFF75CFEC4
:1072040014F0FF04F1D102270023CDE90244CDE9B3
:1072140000471A4619461846013DFFF74DFE15F082
:10722400FF05F1D11C4B08F007081E7803950123D4
:1072340048F07808CDE9017300952B462A4631467B
:107244004046FFF739FE042402270023CDE9025506
:10725400CDE900571A4631464046013CFFF72CFE63
:1072640014F0FF04F1D10A2502260023CDE90244DB
:10727400CDE900461A4619461846013DFFF71CFEA3
:1072840015F0FF05F1D116E7A1AA0020A2AA00205B
:10729400A4AA0020A3AA0020A0AA0020012F7FF402
:1072A4000AAF2F4602260023CDE90244CDE9004669
:1072B4001A4619461846013FFFF7FEFD17F0FF076F
:1072C400F1D1C9F3870808F101083C465FFA88F850
:1072D400052602270023CDE90244CDE900471A46DA
:1072E40041467D20013EFFF7E7FD16F0FF06F1D190
:1072F400062402270023CDE90266CDE900671A4679
:1073040019461846013CFFF7D7FD14F0FF04F1D1EC
:1073140002270023CDE90244CDE900471A46194665
:107324001846013DFFF7C8FD15F0FF05F1D1D24B1A
:1073340009F003091E780395012349F07809CDE982
:10734400017300952B462A4631464846FFF7B4FDA3
:10735400042402270023CDE90255CDE900571A463B
:1073640031464846013CFFF7A7FD14F0FF04F1D174
:10737400062502260023CDE90244CDE900461A463B
:1073840019461846013DFFF797FD15F0FF05F1D1A9
:1073940091E6012D40F07481002F3FD1032725464B
:1073A4004FF002090023CDE90255CDE900591A46F0
:1073B400194618467C1EFFF77FFD14F0FF07F1D134
:1073C400AE4B06F0030693F800900397012346F0B2
:1073D40074060324CDE9014300973B464A464146DF
:1073E4003046FFF769FD0425CDE90277CDE9007445
:1073F40000234A4641463046013DFFF75DFD15F046
:10740400FF05F1D100230222CDE90032CDE9023398
:107414001A4619461846FFF74FFD4CE6032F5FD175
:107424003E4602250023CDE90244CDE900451A4633
:1074340019461846013EFFF73FFD16F0FF06F1D14D
:107444003446052502260023CDE90244CDE9004651
:107454001A4601217D20013DFFF72EFD15F0FF05A1
:10746400F1D1052402260023CDE90255CDE90056C9
:107474001A4619461846013CFFF71EFD14F0FF0496
:10748400F1D102260023CDE90244CDE900461A4693
:1074940019461846013FFFF70FFD17F0FF07F1D11A
:1074A400764B1D880397012305F07F05CDE9016321
:1074B40000973B463A4629467020FFF7FDFC04241A
:1074C40002260023CDE90277CDE900761A46294643
:1074D4007020013CFFF7F0FC14F0FF04F1D1EAE561
:1074E400022F60D103250023CDE90244CDE90047F2
:1074F4001A4619461846013DFFF7DEFC15F0FF0554
:10750400F1D1052402260023CDE90255CDE9005628
:107514001A4601217D20013CFFF7CEFC14F0FF0444
:10752400F1D1062502260023CDE90244CDE9004627
:107534001A4619461846013DFFF7BEFC15F0FF0533
:10754400F1D1032402270023CDE90255CDE90057E8
:107554001A4619461846013CFFF7AEFC14F0FF0426
:10756400F1D1464B08F007081E780394012348F034
:107574007008CDE901730094234622463146404603
:10758400FFF79AFC072502270023CDE90244CDE941
:1075940000471A4631464046013DFFF78DFC15F081
:1075A400FF05F1D187E5012F7FF485AD0325022680
:1075B4000023CDE90244CDE900461A46194618468F
:1075C400013DFFF779FC15F0FF05F1D1C9F38706FA
:1075D4000136F6B2052402270023CDE90255CDE990
:1075E40000571A4631467D20013CFFF765FC14F034
:1075F400FF04F1D1062502260023CDE90244CDE99A
:1076040000461A4619461846013DFFF755FC15F089
:10761400FF05F1D1032402270023CDE90255CDE96A
:1076240000571A4619461846013CFFF745FC14F06A
:10763400FF04F1D1104B09F003091E7803940123D0
:1076440049F07009CDE9017300942346224631467E
:107654004846FFF731FC042502270023CDE9024404
:10766400CDE900471A4631464846013DFFF724FC60
:1076740015F0FF05F1D11EE5A0AA00209EAA002066
:10768400022D4BD1002F7FF416AD4FF003090023D8
:107694001A4619461846CDE90244CDE90045FFF7DC
:1076A4000BFC09F1FF3313F0FF09F0D13B4B93F8C6
:1076B40000A0CDF80C9006F00306012346F07806EE
:1076C4004AF0F00A0327CDE90173CDF800904B4648
:1076D400524641463046FFF7EFFB04244D46CDE9C0
:1076E4000255CDE900570023524641463046013C3D
:1076F400FFF7E2FB14F0FF04F1D106250226002374
:10770400CDE90244CDE900461A4619461846013D22
:10771400FFF7D2FB15F0FF05F1D1CCE43D437FF434
:10772400CAAC032502270023CDE90244CDE9004772
:107734001A4619461846013DFFF7BEFB15F0FF0532
:10774400F1D1174B1A78039502F0070206F00306ED
:10775400012346F0780642F0E8090327CDE90173D6
:1077640000952B464A4641463046FFF7A5FB0424C4
:10777400CDE90255CDE9005700234A46414630463B
:10778400013CFFF799FB14F0FF04F1D13AE609201C
:1077940004B0BDE8F04703F047BB00BFA0AA002037
:1077A4009DAA0020F0B507298BB0044640F0AB80B9
:1077B4000A2505AE63799A1E032A0BD80396A2798B
:1077C400CDE9013223790093E378A27861782078B7
:1077D400FFF772FB013D15F0FF05EBD194F9002092
:1077E4002378002A07DB6378012B0AD9494B1B78DD
:1077F400CBB10BB0F0BD4033DBB2272BF6D8A37866
:10780400F2E70A25002602270023CDE90266CDE926
:1078140000671A461946FF20013DFFF74DFB15F09E
:10782400FF05F1D1E2E7217879BB6378A2780124DE
:107834003F2B3FD112F07E0F40D02046FEF7FAFDD9
:107844008028054659D0344BDFF8D8C01C54334B3C
:1078540005AF04B223F810100FCF04EB84040CEB33
:1078640084060FC6D7F800E0C6F800E005AE0FCED8
:107874002B4F07EB84040FC414235D430123C4F886
:1078840000E00CF805307B55B3E74BB2002B03DD69
:107894006378A2780224CBE701F14003DBB2272B03
:1078A400A7D86378E278090201F47C511943A378DC
:1078B4000324BDE703F0CE02402A15D1012C04D1E4
:1078C4000BB0BDE8F040FEF79FBD2046FEF7B2FDC9
:1078D40080288ED01423434312490022CA541049ED
:1078E400CA540D4B1A5484E703F0C002402A80D1D5
:1078F40013F00E0F3FF47DAF9FE701200BB0BDE8FE
:10790400F040FEF7DFBD09200BB0BDE8F04003F006
:107914008BBA00BFA6AA0020189600201895002054
:1079240098A000209896002073B518481C46184B60
:10793400C01AC00800040E4640F00300154915465D
:1079440004F098FE144B1B78F3B9144B1B78DBB985
:107954009DF818208DF803209DF81C208DF8042034
:107964009DF820208DF8052007210D4A8DF8006030
:1079740068468DF801508DF802408DF8063003F00A
:10798400BBFA08B103F050FA02B070BDDCD10200BA
:1079940094D10200F4D80200A8AA0020A7AA0020CB
:1079A400A977020003F040BA70B40346134C0846AA
:1079B400072B11464FF40012C4F880211AD8EC2585
:1079C40045FA03F6F60715D55B01DBB284F81533E7
:1079D40094F815335B091D41EB070BD5084B9D68E3
:1079E40035B11A6842F400121A6070BCFEF70ABD81
:1079F4002260FAE742F2020070BC704700E100E046
:107A0400C8B6002010B1002002F0CABB7047F0B520
:107A1400027C00238D1D9A4218D8457C134600240D
:107A24008F1DA54222D82A44837C01EBC204002581
:107A3400AB422FD898183A2521F8305001EBC004F6
:107A4400581C74211044E1808000F0BD4468002C6F
:107A54004FEA4407B5BF3A2664267424C824476015
:107A640021F8336025F833400133D4E78668002ECB
:107A74004FEA460EB5BF4FF03A0C4FF0640C742633
:107A8400C826C0F808E0013421F833C027F8336071
:107A94000133C6E7C668002E4FEA460CB5BF3A2745
:107AA40064277426C826C0F80CC001352780E680F8
:107AB4000834BDE72DE9F04F05468BB0182002F0DD
:107AC40061FBAA4BAA4E1B78DFF8048314225A43A5
:107AD400B118B45C002C00F0CB8098F80020BAB93F
:107AE400002D7AD1A34BA44ACDE906234FF00043DD
:107AF400089341F21E23ADF82430002401238DF8AD
:107B04002630ADF814308DF816400DF11408FDE060
:107B1400012A40F0AD80002D42D098489849D0F811
:107B240000804FF0140E0EFB08FC01EB0C0311F85F
:107B34000C40002C40F0E880DFF8989209EB0C022E
:107B4400B8F17F0F57685F6097689F60D768DF6000
:107B5400B2F810B092F812A0A3F810B083F812A0F3
:107B640092F801A092789A7083F801A019F80C2079
:107B740001F80C2008F1010308BF00230360A446A8
:107B840080220EFB03F811F80880B8F1000F00F012
:107B9400C480BCF1000F00D003600EFB0318B5E0F5
:107BA40003EB830306EB83088B783BB1754B1B789F
:107BB400002B00F0BD8088F802501C46724D4046F0
:107BC4002946FFF724FF0023ADF80800CDE903336D
:107BD4006E480195012201A91DE003EB830306EB26
:107BE40083088B78002B00F0BC80664B1B78002B3D
:107BF40000F09E8088F802201C46654D40462946C8
:107C0400FFF705FF0023CDE90333ADF80800614811
:107C14000195012201A902F011FE002388F8003029
:107C2400DCB1524A13780133DBB2342B08BF002392
:107C3400137014225343F35C7BB9574B1B7863B125
:107C4400564B57485749C01AC008000440F0030077
:107C540004F010FD544B01221A704A4B1B78002B80
:107C640040F0818018200BB0BDE8F04F02F091BACB
:107C740098F80030002B32D1002D3FF433AF4B4B3A
:107C84001A78AAB1444A012111700021484A197096
:107C9400084603F031F908B103F0C6F840483F4BF9
:107CA4004449C01AC008000440F0030004F0E2FC98
:107CB400414B1B78012B18D198F800205AB9384849
:107CC40088F80030354B3D49C01AC008000440F024
:107CD400030004F0CFFC002D7FF41FAF02E7012B5B
:107CE400F9D1002D7FF419AFC9E7002BF3D198F82F
:107CF4000020012AEFD12A4888F80030274B304968
:107D0400C01AC0080004E2E798460024002388F85B
:107D14000230002D3FF452AF6FE70133802B08BFD0
:107D24000023013A4FF0010C7FF42BAF0360D9E636
:107D3400194B1B78002BE9D0184B19482149C01A5C
:107D4400C008000440F0030004F094FC0D4A012331
:107D540013701D4A1370144A002313701B4A1370C6
:107D6400D4E72C4649E70BB0BDE8F08FB0AA002059
:107D7400B4AA002000C07F00F8F7FFFF98AA0020F3
:107D840098A00020AAAA0020088F0020208E00209E
:107D940010920020288E0020A7AA002094D102006F
:107DA400DCD1020082D90200ABAA0020A8AA0020DC
:107DB400E96F020008D90200A6AA002022D9020015
:107DC4004CD902006FD90200AEAA0020A9AA002053
:107DD400A5AA0020989600200120FFF76BBE002082
:107DE400FFF768BE2DE9F04F4FF48041B5B0002095
:107DF40004F086FA08B103F017F804F0BBF9022383
:107E0400ADF824309DF8263023F007038DF8263092
:107E1400AF4B9A788DF83E200122ADF85420002211
:107E240019888DF85620B3F803205B79ADF83C101F
:107E3400ADF890208DF8923002F018F908B102F0F4
:107E4400F3FF15A9002002F043F908B102F0ECFF9A
:107E540015A91A2002F03CF908B102F0E5FF9D4D86
:107E6400002455F8040B15A902F032F908B102F008
:107E7400DBFF01340F2CF4D115A9182002F028F9E6
:107E840008B102F0D1FF24A9192002F021F908B1A8
:107E940002F0CAFF0323904A8DF8253009A91C205B
:107EA40002F0C6F908B102F0BFFF15A91D2002F0C7
:107EB4000FF908B102F0B8FF0FA91E2002F008F96B
:107EC40008B102F0B1FF1E2002F07AF915A91F20B3
:107ED40002F0FEF808B102F0A7FF804A80480023B0
:107EE400CDE9242324A97F4A02F0DEFE08B102F082
:107EF4009BFF7D4B7D48D3F810250021D2B220FA98
:107F040002F200917648012302F05BFF03F004F9CA
:107F140008B102F089FF764A7648002103F02EF971
:107F240008B102F081FF744A7448002103F026F975
:107F340008B102F079FF03F083FF08B102F074FF87
:107F440004F012FE08B102F06FFF002324A90120FF
:107F5400249304F095FE08B102F066FF24A804F00F
:107F640031FF08B102F060FF032101220846FFF748
:107F74001BFD08B102F058FF614A0A21082002F0F3
:107F840097FF08B102F050FF11235E498DF8543079
:107F9400092215A8FEF72CFA08B102F045FF0023C8
:107FA400ADF89430584B249324A8C823ADF89630E8
:107FB400FEF71CFA08B102F037FF5448002101F023
:107FC40031F908B102F030FF514B0F93514D524B30
:107FD4000993002409A9284601F038FA08B102F0EF
:107FE40023FF0134102C05F10C05F3D10FA801F087
:107FF4006DFD08B102F018FF484B1593484B1693DA
:10800400484B1793484B18934848494B199315A963
:1080140001F0ECFA08B102F007FF3E2200210DF155
:10802400920005F013F81D23ADF89030414B2593D1
:108034001023ADF89830404B279324A801238DF8E2
:10804400CC3001F017FE08B102F0EEFE41F22353EA
:10805400ADF81430354B394D93F83A308DF816306D
:1080640040F24333ADF818304FF010233449D3F8BD
:1080740080B04FF44053B3F80CA04FF4FE23DF68F4
:108084009E68B3F80C90B3F808804FF080531A6ED2
:108094005C6E2C4B0392ED1AED082D0445F003059C
:1080A4002346284604F0F3FA039AADF832203B0C39
:1080B4008DF82C30330C8DF83030130C3F0E8DF8C6
:1080C4003430120E230C8DF82D708DF835203BE0E2
:1080D40020DA0200D08D0020716502000400030242
:1080E40010DA02009D65020000A0004000127A0030
:1080F400F96902001CDA02002D66020018DA020097
:10810400588E002099D902008400900018B00020F5
:10811400DD65020058AF0020716402009164020022
:108124002D790200156E0200616D0200A4B00020DA
:108134009D6C0200A3D90200C1D90200DCD1020067
:10814400D2D9020094D10200ADF836408DF838300F
:10815400240E16233C220021360E09AF15A88DF8F3
:108164003940ADF81C30CDF824B0ADF828A0ADF8F6
:108174002A90ADF82E808DF83160089724AC04F075
:1081840065FF06238DF857303C2206AB00212046BC
:108194001E9304F05BFF0223884A8DF8903001237C
:1081A400ADF8983052F8041C05AB15A8279300F0DD
:1081B40013FB08B102F038FE814B2046996803F1A5
:1081C4000C0200F009FB08B102F02EFE1822002177
:1081D4000FA804F03BFF01238DF851308DF83C309B
:1081E40077497848F4230FAA1193FEF7F9F808B1F8
:1081F40002F01AFE18220021204604F027FF4FF453
:10820400A033CDE9253303238DF89C3001238DF869
:10821400A03020466C4B2A9300F0B0FD08B102F068
:1082240003FE01F08BFE08B102F0FEFD674802F088
:1082340081F908B102F0F8FD644E1E2096F8008022
:1082440001F0D0FF62490246404602F0A5F908B1A8
:1082540002F0EAFD307802F0BFF908B102F0E4FD63
:108264005C4ED6F80600D6F80A10B27B234603C348
:1082740059491A70594803238DF8923002F0E4FBEF
:1082840008B102F0D1FD2146002002F021FC08B122
:1082940002F0CAFD0323214601208DF8973002F035
:1082A40017FC08B102F0C0FD0F2200214C4804F075
:1082B400CDFE4FF4826200214A4804F0C7FEFEF767
:1082C400A3F8494A00231360484A1370484A1370BC
:1082D400484A1370484A1370484A1370484A137046
:1082E400484A1370484A1C200121137002F016F802
:1082F4001C2002F057F810B90220FEF7E3F84349B6
:10830400284604F0B7F9424802F034FD41480022FF
:108314004FF4804102F03DFF08B102F085FD3E4874
:108324000022082102F035FF08B102F07DFDFEF7BE
:108334009FF83A4A306951683B4603C39068186015
:108344001169F0690FAB03C350691860344A3548AA
:10835400394602F0E1F908B102F066FD324A3348C9
:108364000FA902F0D9F908B102F05EFD304B314D8E
:108374003A2174221980DA802F4B1980DA8095E82B
:108384000F0015AE103586E80F0095E80F0084E85D
:108394000F00002301223146224802F04FFA2348FD
:1083A40000230122214602F049FA02F003FE04F000
:1083B40001F80028F9D103F059FDF6E7108E0020EA
:1083C4000C8E00201C8E0020A9790200D3AE002060
:1083D40040A1004020DA0200BD6502000CDA020070
:1083E400C4AE0020B4AA002098AA0020B1AA00209C
:1083F400B0AA0020AFAA0020AAAA0020A6AA0020A2
:10840400A5AA0020A8AA0020A7AA0020F9D9020042
:1084140010DA020038AF002018AF002030DA020072
:10842400DD7D0200288E0020E37D0200208E0020E6
:108434001092002048DA0200088F00204FF07043A9
:1084440093F8E02F062A10D1D3F8E42F12070CD1A9
:10845400D3F8E80F00F0F003302B08D000F0E00070
:10846400A0F1400358425841704700207047012052
:1084740070474FF0704393F8E02F062A0CD1D3F8DD
:10848400E42F120708D1D3F8E80F00F0F000A0F1B0
:1084940030035842584170470020704708B5FFF731
:1084A400CDFF40B14FF08053834AD3F82433C3F354
:1084B4000423C2F84035FFF7DCFF10B17F4B804A3C
:1084C4005A67FFF7BBFF48B14FF080534FF080422B
:1084D400D3F84432C3F34233C2F83C35FFF7C9FF43
:1084E40030B1784AD2F8FC3023F08073C2F8FC3003
:1084F400FFF7A4FF40B14FF080430022C3F80C21E2
:10850400C3F81021C3F83825FFF7B3FF20B14FF0AB
:1085140080430322C3F8A025FFF7ABFF60B16A4B89
:108524000522C3F810260122C3F888260022C3F8C6
:1085340018263F22C3F814264FF0704393F8E02F17
:10854400062A50D1D3F8E42F11074CD1D3F8E83FD1
:1085540003F0F003502B46D14FF080525B4BD2F81E
:108564000414C3F82015D2F80814C3F82415D2F85B
:108574000C14C3F82815D2F81014C3F82C15D2F82B
:108584001414C3F83015D2F81814C3F83415D2F8FB
:108594001C14C3F84015D2F82014C3F84415D2F8BB
:1085A4002414C3F84815D2F82814C3F84C15D2F88B
:1085B4002C14C3F85015D2F83014C3F85415D2F85B
:1085C4003414C3F86015D2F83814C3F86415D2F81B
:1085D4003C14C3F86815D2F84014C3F86C15D2F8EB
:1085E4004424C3F87025FFF729FF48B14FF08053A6
:1085F4004FF08042D3F8583203F04F03C2F8E43E00
:10860400FFF71CFF48B14FF08043D3F80024D20792
:1086140044BF6FF00102C3F800244FF08053D3F835
:108624003021062A0AD1D3F83431062B01BF284A57
:10863400D2F83C3743F48063C2F83C37214AD2F87D
:10864400883043F47003C2F88830BFF34F8FBFF310
:108654006F8F4FF01023D3F80C32DB0728D51D4B56
:108664000122C3F80425D3F80024002AFBD04FF0DC
:108674001022D2F80C3223F00103C2F80C32154B4D
:10868400D3F80024002AFBD00022C3F80425D3F831
:108694000024002AFBD0BFF34F8F0A490E4BCA684F
:1086A40002F4E0621343CB60BFF34F8F00BFFDE7DA
:1086B4000A4B0B4A1A6008BD0030014000C0074055
:1086C4000DF0ADBA00ED00E00050004000C00040E5
:1086D4000010004000E001400400FA05308E002044
:1086E4000090D0036DDF704779DF70477DDF7047FE
:1086F40064DF70472DE9F04F85B000260E9CBDF86D
:108704003CB0B4F800A00191074690461D46B1461E
:108714003A884A4505DC002E38D1002005B0BDE872
:10872400F08F7A6852F82900039000220DF10B01B2
:1087340003A8FFF7DDFF0028F0D19DF80B20424588
:1087440021D1228808EB02011EB159450CDD0C2011
:10875400E4E702318B45FADB013292B2019B2280BD
:10876400AB5422880132228022880DF10B012A4465
:1087740003A8FFF7BDFF0028D0D121889DF80B2066
:108784000A442280012609F10109C1E72388013B3B
:10879400A3EB0A039BB2FF2BD9D805F80A30BCE738
:1087A4002DE9F341089FBDF824801546CDE90078F2
:1087B400022204461E46FFF79DFF50B9334610229D
:1087C40029462046CDE9087802B0BDE8F041FFF71C
:1087D40091BF02B0BDE8F0812DE9F04F0023168867
:1087E400138090F82D3085B007460D4614465BB3D0
:1087F400082E40F2B48102A8FFF774FF002840F06D
:10880400E2802388DDF809100822EA542388013322
:108814009BB21B222380EA54238801339BB2EA18BB
:108824002380E950BDF80D30938023889DF80820FB
:1088340006339BB2012A88BF0122238094BFE854E7
:10884400EA54238801332380BB7803B32388043399
:10885400B34200F2848102A8FFF746FF002840F0EB
:10886400B28023880322EA54238801339BB219225D
:108874002380EA542388BDF8082001339BB2E91809
:108884002380EA54120A4A70238802332380FA7838
:10889400A2B12388D91CB14200F261810221E954BA
:1088A400238801339BB201212380E95423880B449C
:1088B4009BB22380EA5423880B4423807B68B3B1A2
:1088C40093F900202388D91CB14200F24881022187
:1088D400E954238801339BB20A212380E954238875
:1088E40001339BB22380EA542388013323803B89DC
:1088F400002B5DD13B8A53B1CDE900462B460722BC
:10890400032107F11000FFF74BFF00285BD13B8BDD
:1089140053B1CDE900462B461522142107F1180066
:10892400FFF73EFF00284ED13A6A002A4ED1D7F80D
:108934002480B8F1000F31D0B8F804302188981C95
:108944008A1C0244B24200F20A81FE2800F2078126
:1089540003336B54238801339BB2FF222380EA54F0
:10896400238801339BB22380B8F80020EA54E91825
:10897400120A4A702088023080B22080B8F804209D
:1089840062B1D8F80810002900F0EB80284404F004
:108994002BFB2388B8F804201344238097F82C3049
:1089A400002B59D13B78002B40F0988000200AE03E
:1089B400CDE900462B460622022107F10800FFF705
:1089C400EFFE002896D005B0BDE8F08FB4F800C0E3
:1089D4000CF10603B34200F2C2801188052940F26B
:1089E400C0806FF4486E01EB0E039BB24FF27D3EE4
:1089F400734540F2B6805388052B40F2B2806FF481
:108A04004860181880B2704540F2AB804FF6FF7092
:108A1400814202D0994200F2A480052305F80C306B
:108A2400238801339BB212212380E9542388013324
:108A34009BB223801188E954E818090A41702388FD
:108A440002339BB223805288EA54E918120A4A700E
:108A54002388023323806AE7BB6A002B00F08180FD
:108A64004FF000094FF00C0A4FF0160B97F82C301A
:108A74005FFA89F2934295D9B96A0AFB02F201EBD3
:108A84000208B8F80430981CFE2868D820880333FC
:108A94002B54238801339BB2238005F803B0238829
:108AA40001339BB223808A5AEA54E918120A4A70A5
:108AB4002088023080B22080B8F804205AB1D8F857
:108AC400081000294DD0284404F08EFA2388B8F801
:108AD40004201344238009F10109C7E73A88012AD5
:108AE4003FD02288901CB04239D8012B04D17B7826
:108AF400023313449E4232D3023EB61AB6B202A9DE
:108B04002844ADF80860FFF7F1FD00287FF45BAF5F
:108B14003978BDF80830022914D1B3421DD9ADF813
:108B240008600821BDF80830FE2B18D822880133CC
:108B3400AB542288013292B22280A9542288134471
:108B4400238033E77A78934201D8B34205D90129C7
:108B5400E5D1964228BF1646E1E70921E2E70C2059
:108B640031E707202FE775DF704776DF70477ADF3C
:108B740070477BDF70470000074930B50246002389
:108B8400142505FB03F460180C5B944203D00133F5
:108B9400102BF6D1002030BD18B10020024B9B6988
:108BA40003B11847704700BFFCB0002073B585B20D
:108BB4002846FFF7E1FF044668B1174E027A337B7B
:108BC4009A4211D200F10A012846FFF7CCFF20B9DE
:108BD400237A0133237202B070BD1128FBD002B096
:108BE400BDE87040FFF7DABF00230372337C43B162
:108BF4003B212846FFF7B9FF30F0080301D0FFF707
:108C0400CDFF7369002BE6D000228DF80420ADF867
:108C1400065001A89847DEE7FCB0002013B50B46C8
:108C2400497A02460E4871B9D0E90141187A002800
:108C340008BF2146586802F0ACFA78B102B0BDE82A
:108C44001040FFF7ABBF00211972436933B1012112
:108C54008DF80410ADF8062001A8984702B010BDA5
:108C6400FCB000204B8802889A4212D842889A426B
:108C74000FD380888B8840F2F311884294BF021A84
:108C8400421A9A4205D80844984234BF0020012071
:108C940070470020704700000388122B70B504460B
:108CA4005AD004D8102B1ED0112B45D070BD502B98
:108CB400FCD1304BC288DB899A42F7D1038A022B5C
:108CC400F4D186883046FFF757FF05460028EDD0DB
:108CD40004F1120000F089F940BB686802F071FAEF
:108CE4000028E3D00AE0C37B8688012BDED14FF64F
:108CF400FF70FFF741FF054620B90420BDE870402E
:108D0400FFF74CBF1C4A0680002303721368C0F8A7
:108D14000A305368C0F80E3004F110010A30FFF72E
:108D2400A1FF144B6872DB89002BBFD12946304662
:108D3400BDE87040FFF772BF8088FFF71DFF04464F
:108D44000028B3D0406802F03CFA08B1FFF726FFD0
:108D54004FF6FF732380A9E786883046FFF70CFFA0
:108D640005460028A2D004F108010A30FFF77AFF73
:108D74006872DBE7FCB00020F4B000202DE9F0417C
:108D8400064698B305460FCD1A4F3C460FC495E8E6
:108D9400070084E807003068174C3C60F8B1FFF71F
:108DA400E6FE08BB32681368236053686360134CA3
:108DB400134EDFF8508000254FF6FF7720462780BA
:108DC400424640F8046F002102F0D8F980B9013519
:108DD400102D04F1140406F12006EFD104E020461E
:108DE400FFF7C7FE0028E2D0BDE8F0810E20FBE7C4
:108DF4000320F9E7FCB00020F4B0002018B10020F3
:108E040058B20020B18B02000AB102F0AFBC02F0EC
:108E1400B6BC73B50191019C06466CB100252C4685
:108E2400294601A802F0B5FC18B106EB440301344D
:108E34009D800135142DF3D13046346002B070BDED
:108E44002DE9F04703888488103B8CB005460A2B33
:108E540021D8DFE803F006402020202020202065D0
:108E64004700DFF8E880D8F80830DB430093D8F8EF
:108E74000410684602F0B9FC009901A8FFF7C9FF85
:108E84000DF106090027019B9F4207D3132C12D929
:108E9400042001F0C9FF0CB0BDE8F08739F802AF37
:108EA40000260136514608EB860002F068FC1E2EAF
:108EB400F7D10137E7E71F48214602F057FC1E4867
:108EC400214602F053FCEB7B012BE4D01B482146E6
:108ED40002F04CFCDFE7174821460CB0BDE8F04730
:108EE40002F04DBC027A16483F2A4FEA1215214679
:108EF40094BF00220122FFF787FF022D94BF0022B6
:108F0400012210482146FFF77FFF012D0E4894BF30
:108F14000022012221460CB0BDE8F047FFF774BFE0
:108F2400037A002BB7D1427A0548C2F3C002214626
:108F3400F1E700BF60B400205CB4002064B40020FA
:108F440070B400206CB4002068B4002058B4002031
:108F540037B5002401902546214601A802F019FCEA
:108F640000B101350134142CF6D1284603B030BDCC
:108F740007B5074AD368DB430193916801A802F05F
:108F840034FC0198FFF7E4FF03B05DF804FB00BF75
:108F940058B4002013B5084AD368DB4301939168A1
:108FA400044601A802F021FC20460199FFF731FF95
:108FB400204602B010BD00BF58B40020AADF70479D
:108FC400002301380B70042806D8DFE800F00306FC
:108FD400080A0C0011230B7070472123FBE731238F
:108FE400F9E71223F7E72223F5E7008800F00100F0
:108FF40070470088C0F340007047F0B58B7891B09B
:109004000C46012B38BF01238DF80E3000270B8846
:10901400ADF80C3069460546607C8DF80270FFF7A8
:10902400CFFFA07C0DF10101FFF7CAFF1646227D98
:10903400237B013202F0030243EA4203E27B43EA68
:10904400C203227C43EA02139DF8022003F01F03AB
:1090540022F01F02134339461C2209A88DF802305E
:1090640003F0F4FF637B13F0300F14D00DF109010A
:10907400E07CADF808708DF80A70FFF7A1FF1123AA
:109084008DF808309DF80A30012102AA61F34203E9
:109094008DF80A300E92637B8DF82430A37B8DF813
:1090A40025300023CDE90633089303AB0493A3884A
:1090B400ADF81C30A368CDF814D01BB1E288ADF82C
:1090C40018200893A2695AB301A90023ADF804300B
:1090D4008B701388ADF82C305388ADF82E3053685C
:1090E4000D91107B0A93FFF76BFF0DF10501507B87
:1090F400FFF766FF937B117A013303F0030341EA20
:109104004301937A41EAC301D37A41EA03119DF8FA
:10911400063001F01F0123F01F0319438DF80610D8
:10912400E36903B10C93334604AA09A92846FFF75F
:1091340045FF11B0F0BDAFDF7047B3DF70470000EB
:1091440070B505461048FFF7F8FF70B90E4C43F2AE
:10915400030621884FF6FF722846FFF7ECFFB04262
:1091640011D1238801332380F3E702F05BFF074921
:10917400074B5B1ADB081B040246064943F0010057
:1091840003F07CFA032070BDD4B4002094D1020013
:109194001CD2020068DA020090DF7047A5DF704736
:1091A400B5DF70477FB50023ADF80810ADF80A109D
:1091B4006A4602A9064603930093ADF80430FFF70C
:1091C400EBFF054600B3124B124CE41AE40802F01C
:1091D40029FF240444F0010403460F493246204683
:1091E40003F055FABDF80020BDF8023052EA03013D
:1091F40003D00A49204603F04AFABDF804201AB104
:109204000749204603F03AFA284604B070BD00BF6F
:1092140094D10200FCD10200C6DA020010DB020085
:109224004FDB020010B5A8B14FF0171303601B23E6
:10923400C0F88810037100F1800417210022C18056
:1092440001818272C272037343730830A042F6D163
:10925400002010BD0E20FCE7F7B585880F2D0C46C5
:109264001AD80388242B4FEAC50700F0A38015D829
:10927400112B7AD0232B00F0B180102B43D03C4427
:10928400A37A4BB1E1882846FFF788FF002840F015
:10929400AC804FF48073638103B0F0BD3A2B6CD083
:1092A400552BECD1C388CE19172BF18838BF17235F
:1092B4008B4228BF0B4633810023B3722846FFF745
:1092C4006FFF60B102F0AEFE5149524B5B1ADB08EE
:1092D4001B040246504943F0010003F0CFF9F37A2E
:1092E400002BCCD1D4F88830002BC8D040F677229C
:1092F400ADF800203289ADF80250ADF8042069467B
:1093040020469847BBE7C37B0A79CE19012B3273F9
:1093140013D0022B14D0F18833898B4205D228460E
:10932400FFF73CFF70B90123F372317B737B8B42EF
:10933400A5D22846FFF736FFA1E70B88F380EAE7BA
:109344004B88FBE7112802D10123B372EDE702F049
:1093540069FE2F492F4B5B1ADB081B0402462F4979
:1093640043F0010003F08AF9DFE7CB191722DA8012
:109374009A6041F61B329A8181E7CE194389F288BB
:10938400934228BF1346172BD1F8882038BF1723E0
:10939400338162B1F17A51B140F67721ADF8001012
:1093A400ADF80250ADF804306946204690470023DA
:1093B400738164E7CB19027A5A73D1F88830002B91
:1093C4003FF45DAF00218DF805104DF67A21ADF81C
:1093D4000010ADF802508DF8042090E7CB19017A03
:1093E4001B7B994228BF1946A3E711283FF454AFC9
:1093F40002F018FE0649074B5B1ADB081B040749F9
:10940400024643F0010003B0BDE8F04003F036B972
:1094140094D10200FCD10200D6DB0200A5DB0200DD
:10942400B0DF704766DF704710B5002104464088FE
:10943400FFF7F8FF034608B9237210BD112801D1C4
:109444000123F9E76368BDE81040184760B159B1DA
:109454000378DE2B0AD00B684360DE2303704FF6DB
:10946400FF734380002070470E2070470820704728
:1094740028B10378DE2B04D14180002070470E20F0
:10948400704708207047F0B5054685B00C460029A2
:1094940040D000283ED00B78DE2B3BD182884B880D
:1094A4009A4204D10B7A13B10846FFF7BDFF2B880B
:1094B400112B3BD0512B0FD0012B2BD12B7AAA8807
:1094C400012B27D16188914224D12046237205B013
:1094D400BDE8F040FFF7A8BFAF886388BB4219D14D
:1094E400AE79022E16D1AB7B03F0FD02042A13D110
:1094F40010220021684603F0A9FD4FF4C0738DF8D3
:109504000060ADF8043069463846FFF789FF08B1BA
:109514006368984705B0F0BD052BFBD110220021EC
:10952400684603F093FD8DF80060ECE76388AA8831
:109534009A4204BF4FF6FF736380EBE7A8DF7047DE
:10954400AEDF704762DF70477FB50388502B044657
:109554000D4649D1C2884B889A4207D1038A012B10
:1095640004D1CB6B13B1817C28469847E2886B8980
:109574009A420FD1238A062B0CD12E6C56B1E37D6F
:109584000293A37D0193637D0093237DE27CA17C00
:109594002846B047E2886B8A9A4207D1238A012B76
:1095A40004D16B6C13B1A17C28469847E2886B8B7D
:1095B4009A4207D1238A012B04D1AB6C13B1A17C4D
:1095C40028469847E2886B8D9A420DD1238A052B51
:1095D4000AD1EE6C46B1A37D0193637D0093237D94
:1095E400E27CA17C2846B04704B070BD2DE9F0416F
:1095F4000B68C3634B6803648B684364CB68836400
:109604000B69C3648EB09B4B02AA044603F1100796
:10961400164618685968154603C50833BB422A46DE
:10962400F7D104F13A013046FFF78CFF01460028D8
:1096340040F01C8194F83A308DF8063001A941F2CB
:10964400235322460120ADF80430FFF777FF01468B
:10965400002840F00B811D220DF11B0003F0F6FCE5
:1096640041F22453ADF8183094F83A308DF81A309A
:109674009DF82530224623F00A0343F00A0301250E
:1096840006A932F8020B8DF825304FF00116079623
:109694008DF829508DF82A50FFF7AFFC01460028B9
:1096A40040F0E4801D220DF11B0003F0CFFC41F2D9
:1096B4002553ADF8183094F83A308DF81A304FF03D
:1096C400061307939DF825308DF82950224623F080
:1096D4000A0343F00A0306A932F80A0B8DF8253071
:1096E4008DF82A50FFF789FC0146002840F0BE801F
:1096F4008DF803001D220DF11B0003F0A7FC41F2BD
:109704002653ADF8183094F83A308DF81A309DF895
:1097140025300796224623F01A0343F01A0306A9BC
:1097240032F8120B8DF825300DF1030740F20118C1
:1097340008978DF82950ADF82A80FFF75EFC0146A2
:10974400002840F093801D220DF11B008DF803507A
:1097540003F07CFC41F22753ADF8183094F83A300A
:109764008DF81A309DF825308DF82950224623F0C3
:109774001A0343F01A0306A932F81A0B8DF82530A0
:10978400CDE90767ADF82A80FFF737FC01460028CA
:109794006CD11D220DF11B0003F058FC41F228533B
:1097A400ADF8183094F83A308DF81A304FF00213AF
:1097B40007939DF825308DF82950224623F0120393
:1097C40043F0120306A932F8220B8DF825308DF8E8
:1097D4002B50FFF712FC0146002847D11D220DF142
:1097E4001B0003F033FC41F22953ADF8183094F810
:1097F4003A308DF81A304FF0051307939DF8253051
:109804008DF82950224623F00A0343F00A0306A9DF
:1098140032F82A0B8DF825308DF82A50FFF7EDFB2E
:10982400014618BB8DF803001D220DF11B0003F047
:109834000DFC41F23053ADF8183094F83A308DF8FD
:109844001A309DF825308DF82950224623F0120352
:1098540043F0120306A932F8320B8DF82530CDE916
:1098640007678DF82B50FFF7C8FB014608460EB07A
:10987400BDE8F08112DC020010B586B002248DF838
:1098840005300023CDF80B308DF80F3001238DF80F
:109894000A304B8CADF8083001AB059302A90DF1E9
:1098A4000603ADF806408DF804200493FFF748FE44
:1098B40006B010BD30B585B004460D460D2200211A
:1098C4000DF1030003F0C2FB01238DF80230694659
:1098D4006B8AADF800302046FFF732FE05B030BD8C
:1098E40030B585B004460D460D2200210DF103006C
:1098F40003F0ACFB01238DF8023069466B8BADF8A5
:1099040000302046FFF71CFE05B030BD7FB50123B3
:10991400ADF806308DF80A304B8EADF8083001AB47
:109924008DF80420059300220DF1060302A9CDF859
:109934000B208DF80F200493FFF702FE07B05DF8AB
:1099440004FBA8DF7047ADDF7047AEDF7047B0DFC0
:10995400704762DF70473CDF70473DDF70477047F8
:109964002DE9F041044688B038B10388512B27D043
:1099740006D8102B18D0112B1AD008B0BDE8F081EE
:10998400532BFAD12F4DC288EB889A42F5D12B7E06
:10999400002BF2D000F036F90028EED06B690220DB
:1099A40008B0BDE8F04118478288264B9A80E4E766
:1099B400244B81889A889142DFD14FF6FF72F5E7F4
:1099C400204EB0F80480B3889845D6D18579022D0D
:1099D400D3D10289F3889A42CFD1837B043B022BF3
:1099E400CBD9102200210DEB020003F02FFB01AFB5
:1099F40071898DF8105002AA404602950397FFF72B
:109A0400A2FF0546D0B93846FFF7F3FAB0B19DF886
:109A1400163043F001038DF81630ADF81450B088B9
:109A240004A9FFF794FF1128F9D0BDF81430002BD6
:109A3400A3D104F1080000F0B5F89EE740F2FD154B
:109A4400EBE700BFD8B400207FB50023CDF80B307E
:109A54008DF80F300323ADF8023020238DF8043045
:109A64000D4B8DF80500DA88ADF8082002228DF838
:109A74000A206A448DF806100492988801AA02A963
:109A84000592FFF762FF20B9BDF80230032B18BF1F
:109A94000C2007B05DF804FBD8B4002010B54FF0DB
:109AA400FF310020FFF759FF044658B9B121FFF7F1
:109AB40052FF044630B9044B01205B6998470220E9
:109AC40002F0FCF9204610BDD8B40020F0B51C4BC0
:109AD40087B002AC024603F110072546186859689E
:109AE400264603C60833BB423446F7D12AB3154C85
:109AF4004FF6FF73A380136800222276124A204691
:109B0400002B08BF1346636100F020F898B90120C8
:109B14004FF65963A21C01A98DF80600ADF8043074
:109B2400FFF70FFF38B921462846FFF712FF10B997
:109B3400204600F015F807B0F0BD0E20FBE700BF8B
:109B440022DC0200D8B400206399020018B1034B50
:109B54001860002070470E20704700BFF4B4002046
:109B640010B588B004461D2200210DF1030003F056
:109B74006DFA22460323ADF8003012F8063B8DF847
:109B8400023042F60103ADF80C301723ADF804306F
:109B940060884FF0013369460493FFF72EFA08B04A
:109BA40010BD000070B50546007B154C012823D17B
:109BB40023685E7E4EB10621FFF746FFF0B12368AD
:109BC4005B690320BDE87040184718760146FFF72B
:109BD4003BFF98B1236811281E7614BF0421062187
:109BE400287BFFF731FF18B1236803205B6998478E
:109BF400236802205B69E5E70221F1E770BD00BF3D
:109C0400F4B4002008B5044B1B6800205B69984736
:109C1400BDE80840FFF742BFF4B40020A8DF704756
:109C2400F0B5074689B014461E460D4611B90846DC
:109C340001F0FAF814B9204601F0F6F81E220021CA
:109C44000DF1020003F002FA02238DF80D30084BE7
:109C54000E9A1888ADF800706946ADF80440ADF866
:109C6400064002958DF81160FFF7C7F909B0F0BD01
:109C740040B5002030B587B041F60A035E4AADF81E
:109C84000C30044603A901208DF80E00FFF7C6FF2F
:109C94000546002849D12288002A49D1228952B197
:109CA400564B009394F83C30E16842F62420FFF7C9
:109CB400B7FF002847D1228A52B1514B009394F840
:109CC4003C30616942F62520FFF7AAFF00283AD10B
:109CD400228B52B14B4B009394F83C30E16942F62D
:109CE4002720FFF79DFF00282DD1228C4AB1464B37
:109CF400009394F83C30616A42F62620FFF790FF07
:109D040008BB228D4AB1414B009394F83C30E16A80
:109D140042F62820FFF784FFA8B9236BABB9616B27
:109D2400002938D1A36B002B42D1284607B030BD9F
:109D3400374B009394F83C30616842F62920FFF7D2
:109D44006FFF0028AAD00546EFE71A688DF81020A7
:109D54001A68120A8DF811205A888DF81220DA78C0
:109D64008DF813205A688DF814209B688DF81530EF
:109D74001A0A1B0C8DF81730264B00938DF8162009
:109D840094F83C30082204A942F62320FFF748FF48
:109D94000028C4D0D7E7204B0A79009394F83C30CC
:109DA400096842F62A20FFF73BFF0028BAD0CAE729
:109DB4001A788DF810205A888DF81120120A8DF81F
:109DC40012209A888DF81320120A8DF81420DB884B
:109DD4008DF815301B0A8DF81630104B009394F84B
:109DE4003C30072204A942F65020FFF719FF00284F
:109DF40018BF054699E700BF40B5002030B50020E4
:109E040028B5002020B5002018B5002010B500208A
:109E140038B5002008B5002000B50020F8B40020B3
:109E240038B5074C051E04F1080318BF1C46236807
:109E34002BB11A6822605B6828469847F7E738BD5B
:109E44004CB5002020B9054B01225A70FFF7E8BF3A
:109E5400012802D1014A9070F8E7704744B5002008
:109E640020B9034B01225A70FFF7DABF704700BFD5
:109E740044B5002038B50B4C237883B90A48636095
:109E8400A3602361E36000F063F8054602F0AAFED4
:109E940008B900F069F801232370284638BD8525E8
:109EA400FBE700BF44B50020499E020037B50B4CC8
:109EB40000230DF107008DF8073001F057FAE3682D
:109EC400013BE360E56815B900F060F8A5709DF802
:109ED400070001F06FFA03B030BD00BF44B50020A5
:109EE400012813B508D003281CD018B9114B01223E
:109EF400C3F8802002B010BD0F4C00230DF1070001
:109F04008DF8073001F032FA23780BB9FFF7B2FF6E
:109F1400E3689DF807000133E3600123A37001F0B7
:109F240049FAE7E700F020F802B0BDE81040FFF777
:109F3400BDBF00BF00E100E044B50020034B18782A
:109F440010B901221A7070478520704758B5002057
:109F5400044B0246187918B91A6001229A80704796
:109F6400852070475CB50020074B1A68D2075FBF95
:109F7400C02283F8002301221A604FF0804301229B
:109F8400C3F81825704700BF00E100E04FF080439C
:109F94000122DA60D3F81824D203FBD470470000FE
:109FA4004FF0804307B5D3F800217AB10022C3F8FB
:109FB4000021D3F800210092009A0122C3F808235B
:109FC4000F4B587910B95A711B6898474FF080436A
:109FD400D3F8042182B10022C3F80421D3F8042168
:109FE4000192019A0222C3F80823054B1B68012041
:109FF40003B05DF804EB184703B05DF804FB00BF41
:10A004005CB5002000F1804000F5C040002382B020
:10A01400036003680193019B02B07047800000F164
:10A02400A040D0F8003723F44033C0F80037D0F80C
:10A03400003743EA0143C0F800377047C2080123E0
:10A0440000F007008340885C03438B547047000092
:10A05400054B4FF0FF32072843F8202084BF1B181C
:10A0640083F84820704700BF64B5002038B5144D0C
:10A0740095F8584014BB2022FF2105F1300002F06E
:10A08400E5FFE0B20134FFF7E3FF0C2CF9D10D4BEF
:10A0940000221A600C4BC02183F80613402119607A
:10A0A4004FF4BE70FFF7AEFF084B4FF00041C3F80A
:10A0B4000413012385F85830104638BD0820FCE706
:10A0C40064B50020B8B5002000E100E00060004065
:10A0D40038B52A4B1A1892F9304001344CD18C7897
:10A0E400002C45D01C46002254F8045B01353AD1BB
:10A0F4001C1884F83020002443F82240920002F116
:10A10400804202F5C0420B78D2F810554C7825F401
:10A1140098151B04240525F4F85504F4801403F45D
:10A124004033C2F8105523430402D2F8105504F406
:10A13400F85423432B43C2F810354A780123012AEB
:10A144004FF0A04203FA00F30CBFC2F80835C2F87E
:10A154000C3500F5E073032142F823100849FFF79A
:10A164006DFF002003E00132082ABDD1042038BD70
:10A17400FE2382F83030E0E70820F8E764B50020D9
:10A18400B8B5002001234FF0A0428340C2F808353F
:10A19400704701234FF0A0428340C2F80C3570474A
:10A1A4004FF0A0410122D1F8043502FA00F020EA70
:10A1B40003020340C1F80825C1F80C3570470000BC
:10A1C400074B034493F930309B0003F1804303F5BC
:10A1D400C043D3F8102542F00302C3F8102570479A
:10A1E40064B50020054B034493F930008000C0B2ED
:10A1F40000F1804000F5C040704700BF64B5002006
:10A204000A4B0344003993F930304FEA830303F1D6
:10A21400804303F5C04318BF0121D3F8102522F46D
:10A22400801242EA0152C3F81025704764B5002039
:10A234002DE9F041DFF8E08008EB0003044693F9D0
:10A244003030002B0F4663DA8978C1F340010029CE
:10A2540015BF0023082308260C26B34202D104208C
:10A26400BDE8F08158F8230001304FEA83053AD164
:10A2740008EB04005EB248F8232080F8306011B97E
:10A28400434483F84840BB7859070ED4DA072CD5E9
:10A29400A30003F1A043D3F8002722F00202C3F87D
:10A2A40000271C492046FFF7C9FEBB783A789B0774
:10A2B40024D505F1804303F5C0432402D3F81015D7
:10A2C40021F4473121F44071C3F810151204D3F876
:10A2D400101504F4F85402F4403214430C43C3F848
:10A2E40010450020BCE70133B7E77A7804F5E07342
:10A2F4004FF0A041920041F82320D2E7083E48FAEB
:10A3040086F696F8503043EA821386F85030E8E730
:10A314000820A5E7B8B5002064B5002010B51F4C8F
:10A32400231893F93020072A18DD083A44FA82F2F8
:10A3340092F850309B09032B0BD14FF0A043D3F874
:10A344001015C14001F001010231BDE81040FFF7D2
:10A3540065BE012B0CBF02210321F6E7D3B2072B04
:10A364001AD8930003F1804303F5C043D3F81005D2
:10A3740040F00100C3F8100502F1400040B2800033
:10A3840080B2FFF73FFE39B154F8223023B10123E4
:10A394009340034AC2F8043310BD00BF64B50020E3
:10A3A400006000404FF0A043D3F8103523FA00F0CA
:10A3B40000F00100704700002DE9F04F87B0002441
:10A3C400594D03944FF48072012102F1804303F547
:10A3D400C0431B68012B07D1D5F804330B4203D0CB
:10A3E40090B2FFF70FFE0C430432B2F5907F4FEAB0
:10A3F4004101EAD14C4BD3F87C31012BE2B227D195
:10A404004FF4BE70FFF7FEFD4FF0A043D3F81035B4
:10A4140003930AB344F00044444F00250126264226
:10A4240010D0AB0003F1804303F5C043D3F810050B
:10A43400D3F8101557F8253023B1C1F30141C0F307
:10A44400042098470135082D4FEA4606E7D101E07C
:10A45400002AE1D1002C64DA00224FF0FF33CDE969
:10A464000423DFF8C880DFF8C89000273E4619F9B6
:10A47400014F631C40D0C4F3C20318336B44012260
:10A48400E5B204F03F0B04F0070402FA04F413F8F5
:10A49400042C224230D008EB0B02AD0992F9302093
:10A4A40058F822A0BAF1000F08D1032D24D104A931
:10A4B40058460193FFF7C2FD019B01E0032DF6D03E
:10A4C4000BF5E0714FF0A04213F80C3C52F8211048
:10A4D4002342C1F301411ED002290DD1032D05D120
:10A4E40029465846FFF79AFD0136F6B2BAF1000F35
:10A4F40002D029465846D0470137042FB7D186B138
:10A504004FF0A043039AD3F81035934209D0039334
:10A51400049B0593A7E70329EED1032DE6D102217D
:10A52400DFE707B0BDE8F08F0060004064B50020AD
:10A53400B3B500202DE9F3470025154EDFF854800C
:10A544000746A9460DF107008DF80790012400F095
:10A554000DFFEBB29C4034429DF8070008D100F097
:10A5640029FFA64305F10105ECD14FF0040A0AE0E6
:10A57400D8F8003014EA030AF1D11C433D70C8F83E
:10A58400004000F017FF504602B0BDE8F08700BF5E
:10A59400FFFF0100C0B5002010B5A1B19AB101239D
:10A5A4008340C3F3100484B10A4C246823420ED0C0
:10A5B400C00000F1804000F5F830C0F81015C0F874
:10A5C4001425002010BD0E20FCE70720FAE7082020
:10A5D400F8E700BFC0B50020012303FA00F0B0F58E
:10A5E400003F08D2064B1B68184206D0054BC3F83F
:10A5F400040500207047072070470820704700BFFB
:10A60400C0B5002000F00140012303FA00F0B0F5CA
:10A61400003F08D2064B1B68184206D0054BC3F80E
:10A62400080500207047072070470820704700BFC6
:10A63400C0B5002000F00140014B1B68184700BF63
:10A64400C4B500200023435082B043580193019BBA
:10A6540002B07047D0F8103170B505460C4653B1BE
:10A664004FF48871FFF7EEFF63795A0703D5236827
:10A674000BB101209847D5F814315BB14FF48A71BE
:10A684002846FFF7DFFF63791B0703D523680BB167
:10A6940002209847D5F81C315BB128464FF48E71DF
:10A6A400FFF7D0FF607910F0100002D1236803B1E6
:10A6B4009847D5F8043163B14FF482712846FFF707
:10A6C400C1FF0123237123681BB1BDE8704003203F
:10A6D400184770BD10B51C4602230B710B684A71F4
:10A6E40073B112F0040F0CBF82219221130748BFEB
:10A6F40041F02001D30648BF21F08001C0F80013C7
:10A704004FF48271FFF79EFF13065BBF01230351D1
:10A714000019002010BD00002DE9F04F444D0379CD
:10A724000C4605EBC30185B009794FEAC30900293A
:10A734007CD145F83320661E694604F103084FF0C6
:10A74400010A4FF0A0474FF0030B16F801CFBCF1FC
:10A75400FF0F67D02CF080030B600AFA03FE03F5A9
:10A76400E0731CF0800F14BFC7F808E5C7F80CE5C8
:10A7740047F823B0464501F10401E6D10068009B87
:10A78400C0F86035019BC0F86435029BC0F8683599
:10A79400039BC0F86C350123C0F80035A1792389E7
:10A7A4006679C0F80C65C0F80415C0F808356389EB
:10A7B400C0F810350023C0F800324FF48E71C0F891
:10A7C4000033FFF73FFF4FF48871FFF73BFF4FF46F
:10A7D4008A71FFF737FF4FF48271FFF733FFD2B16D
:10A7E40040F3073000282379B5BF124A00F16042D4
:10A7F40000F00F0102F561424FEA4313DBB2B4BF2C
:10A80400535482F8003341090B4A00F01F0001231E
:10A81400834042F821304D4401232B71002005B0C0
:10A82400BDE8F08F4FF0FF330B60A3E70820F6E795
:10A83400CCB5002014ED00E000E100E0F0B40C46DB
:10A8440005791B4900682768A688C0F8207501EBC4
:10A85400C501A568E468C0F82465C0F82855C0F8A7
:10A864002C45C0F84075C0F84465C0F84855C0F898
:10A874004C4502F0010404EB5202DD07C0F8142534
:10A88400DAB20FD413F002030DD034B90423C0F8A4
:10A8940000320823F0BCFFF71DBF0823C0F80032C4
:10A8A4000C23F7E71023C0F80032002CF8D1F0E7AE
:10A8B400CCB5002001490248FFF7CCBECCB500203E
:10A8C40000C0014001490248FFF7C4BED4B50020CE
:10A8D4000010024000F1804000F5E040002382B007
:10A8E400036003680193019B02B07047F0B5544BB9
:10A8F400544CD3F8043194F82E2085B0002B3BD06F
:10A904004FF48270FFF7E6FF2AB394F82F3013BB9D
:10A914004B4AD2F80031002B32D04FF48070FFF74D
:10A92400D9FF638B94F82D00834250D921891B1AD7
:10A934009BB289B26383CB1A616801EB4301C2F80D
:10A944002C16C2F830064FF48270FFF7C3FF3C4B5D
:10A9540001225A6014E0636802932389ADF80C3035
:10A96400E36800218DF8041033BB2374236801A825
:10A974009847002384F82F3094F82E30002BC7D149
:10A984002F4BD3F810315BB14FF48870FFF7A2FF5F
:10A994000023237402238DF8043001A82368984708
:10A9A400274BD3F814310BB34FF48A70FFF792FF9F
:10A9B4000023237405B0F0BD208B60836360208185
:10A9C400E160002AD2D11E4B01221A60CEE7BAD12F
:10A9D400E168012084F82F0031B100206083C2F8BF
:10A9E4002C16C2F83036AEE76183ACE766694FF0E7
:10A9F40000470125002EDDD0B6FA86F227FA02F3CD
:10AA04004632920026EA030602F1804303F5E0434E
:10AA14001B68002BEED01046A2F58C72FFF75AFF8C
:10AA2400D30882F00402C2F380028DF808308DF856
:10AA3400045023688DF8092001A89847DAE700BF7D
:10AA440000700040DCB5002038B51E4B044693F876
:10AA54002C00A8BB1C4A19602178C2F8F015617853
:10AA6400C2F8F415E5781874012183F82D005861B3
:10AA740083F82F0083F82E5083F82C106FF00043D6
:10AA8400C2F808334FF48270FFF724FF4FF480704C
:10AA9400FFF720FF4FF48A70FFF71CFFA3780B48E1
:10AAA4005B01DBB280F80733802303600223C2F822
:10AAB40004330DB1C2F80413C2F80015002038BDE8
:10AAC4000820FCE7DCB500200070004000E100E055
:10AAD40070B52A4B1A7C02F0FF05002A4CD10A7982
:10AAE400012A9CBF264CC4F8005500F10C0503EB69
:10AAF4004504247924B993F82D40013483F82D407A
:10AB040003EB4503CC790D7A8E781C715D714B781B
:10AB140036021B0106F4E06603F0300333430E787B
:10AB240006F003063343CE78360306F480563343E7
:10AB3400160406F4E02633434E798979360506F483
:10AB440080160906334301F080710B430C4901EB75
:10AB54000016000100F1804000F5E040012AC6F82B
:10AB6400183598BF0123C0F81455C0F8104598BF94
:10AB7400C1F80035002070BD1120FCE7DCB50020D1
:10AB84000070004070B5324A147C04F0FF03002CBE
:10AB94005CD1304C012503261574C4F80863C4F84D
:10ABA4002C16C4F8305692F82D40AC420CD91D46F0
:10ABB400190101F1804101F5E0410133082BC1F88D
:10ABC4001455C1F81055F3D100F10C03000102EB48
:10ABD400430300F1804000F5E04019795B79C0F847
:10ABE4001435C0F810151B4901230B604B6042F269
:10ABF4001073D1F8040108B9013BFAD14FF4807005
:10AC0400FFF768FE4FF48270FFF764FE012C11D940
:10AC14000F4800210B0103F1804303F5E0430131A8
:10AC2400047F457FC3F814550829C3F8104500F183
:10AC34000200EFD192F82E10064B29B10321002017
:10AC4400C3F80413107470BD0221F8E71120FAE769
:10AC5400DCB50020007000402DE9F34700240646CF
:10AC64000F46904600F5A0754FF48039A2462B6834
:10AC74008BB1D6F8043309FA04F21A420BD0C5F8A2
:10AC840000A02B680193A000019B00F5A07398B26B
:10AC9400D7E9003198470134444505F10405E6D16C
:10ACA40002B0BDE8F0870000F7B505792E4C0C23FF
:10ACB4006B43E71816463A7A002A52D1E6504B689D
:10ACC4007B60467903681746D0B2864240D843F386
:10ACD4000732C878002AADBF02F1604602F00F07C0
:10ACE400224E06F561464FEA4010C0B2B4BFF0559B
:10ACF40086F80003570901201D4E02F01F0200FAD6
:10AD040002F246F82720D3F804654A7826F00306B1
:10AD140002F003023243C3F80425D3F808658A78A5
:10AD240026F0030602F003023243C3F808250A782A
:10AD3400D3F8106502F00F0226F00F010A43C3F89E
:10AD440010250C2303FB05442072002003B0F0BD42
:10AD5400900000F5A07001321F501858019001981E
:10AD6400B2E70820F2E700BF0CB6002014ED00E0C3
:10AD740000E100E0036801221A600279034B0C2110
:10AD840001FB023302221A72704700BF0CB6002086
:10AD940037B54FF4803400688C407BB18B0003F5E9
:10ADA400A0730025C550C3580193019BC0F8044308
:10ADB40001F5A87140F8212003B030BDC0F8084364
:10ADC400F6E770B4046840F20116D4F800528E40DD
:10ADD40025EA0605C4F80052D4F800522B43C4F8FF
:10ADE40000329DF80C3070BCFFF7D2BF0249034813
:10ADF4000422FFF731BF00BF0CB6002000900040D2
:10AE0400024903480422FFF727BF00BF18B60020F9
:10AE140000A00040024903480622FFF71DBF00BFFF
:10AE240024B6002000A001401FB50021039001AA10
:10AE340044F20100CDE9011100F004F805B05DF819
:10AE440004FB000038B572B601F06AFC01F0B2FAF6
:10AE54000028FBD1104B114C114D1249E41AE4089F
:10AE6400240444F0010001F005FCD5F8F030DB07C0
:10AE740000D500BE0C4944F0020001F0FBFBBFF317
:10AE84004F8FEA68094B02F4E0621343EB60BFF3AF
:10AE94004F8F00BFFDE700BF94D10200DCD1020058
:10AEA40000ED00E073DC02007FDC02000400FA0520
:10AEB4004B1C30B5DB00044612F003009BB20DD1ED
:10AEC400074D2A601A44074B1A60074B1870074B4A
:10AED4001870074B1C80074B198030BD0720FCE716
:10AEE4003CB6002038B6002034B6002035B6002029
:10AEF40032B6002030B600202DE9F743DFF8AC80ED
:10AF0400B8F800308B4205460C46174643D300265A
:10AF14000DF107008DF8076000F028FA1F4B204A56
:10AF2400DFF88CC01B78BCF800C010786045C1B253
:10AF340038BF0131DBB238BFCEB2B3429DF807004F
:10AF440005D100F037FA042003B0BDE8F083167889
:10AF54001178CBB28C4586BF0133DBB2002313706A
:10AF640000F028FA0F4BF6B21B6843F8367003EB77
:10AF7400C60975B14CB10C4BB8F800001B682246E9
:10AF8400294606FB003002F02FF8A9F804400020FF
:10AF9400DAE72C46F9E70920D6E700BF35B60020EA
:10AFA40034B600203CB6002038B6002032B600206B
:10AFB40030B6002070B5104C104D22782B789A4290
:10AFC40000D170BD0E480F4A2378126806880E48D7
:10AFD40002EBC301006852F83320898803FB0600A2
:10AFE40090470A4922780988D3B2914286BF013337
:10AFF400DBB200232370E0E735B6002034B600202E
:10B0040032B600203CB6002038B6002030B600200E
:10B0140010B5D0E90242D1E90203A04293412CBF0A
:10B024000120002010BDD0E90030184708B50A48B7
:10B0340000F0F5FA094AD2E90031C018084BD3E907
:10B04400002341F10001904271EB030303D210F19C
:10B05400807041F1000108BD348E0020B8B6002094
:10B06400B0B6002037B505460C460A4801A900F0E1
:10B0740008FB68B10570446001A9064800F02BFB89
:10B0840010B9002003B030BD034800F0CDFAF8E752
:10B094000420F7E744B60020348E00201B4B37B55C
:10B0A4001D7804466DB378B3037F03F0FF0543B303
:10B0B400FFF7BCFFD4E90223904299411BD32369D3
:10B0C40003B9237763690093114AA36901930821A3
:10B0D4006846FFF711FF08B1FFF7A6FE22697AB1AF
:10B0E400237F03F0FF0563B1D4E902319B1841F1DA
:10B0F4000001C4E902310748214600F052FF00E094
:10B104001546284603B030BD0546FAE7C0B6002010
:10B114002BB002008CDC020013B5114B11491868E6
:10B12400019008231048582200F098FA044698B970
:10B134000E4A0F4801A900F05FF9044660B90C48B3
:10B14400012100F04FFA01230A4A0948194600F088
:10B15400B1F9094B01221A70204602B010BD00BF9C
:10B16400A2DC020054B6002044B60020E1B1020083
:10B17400348E0020FFFF7F00C0B600203AB1036880
:10B184005A614A1E514251411961002070470720FB
:10B19400704738B5037F04460D4683B98261FFF7D3
:10B1A40045FF2369281841F10001C4E9020103B1F4
:10B1B400256121460020BDE83840FFF753BF002039
:10B1C40038BD0023014603770120FFF74BBF000081
:10B1D400014800F024BA00BF348E00202DE9F34763
:10B1E400064600F007FA40B1584AD2E9003113F19B
:10B1F400807341F10001C2E900310021304600F0C2
:10B2040008FA38B1524C236823B12068FFF746FF8F
:10B21400002323600121304600F0FBF920B1FFF741
:10B2240005FF4C4BC3E900014B48494C4B4D4C4F77
:10B2340001A900F060FA00283FD1DFF82081444CD6
:10B24400DFF82491404600F0C2FE2368002875D040
:10B2540073B12268D0E90253D2E902128D429341BC
:10B2640028D223681B7F1BB12168404600F099FE59
:10B27400404600F0A6FED0E9027A0546FFF7D6FE66
:10B284003F1A6AEB010A012F7AF1000A45DBB7F590
:10B29400350F40D3FFF79CFF324A02444FF4960324
:10B2A4000021484600F026F900283ED12368002BEF
:10B2B40040D0256002B0BDE8F0870378012B1CD094
:10B2C400022B08D14FF00008284600F07AFEF8B9A6
:10B2D40001233B7008E03BB941680B7F23B901238C
:10B2E4001E480B7700F05DFE01A91B4800F02EFA02
:10B2F40001A9194800F0FFF99DE7416823689942C4
:10B3040002D100232360EFE7284600F063FEEBE759
:10B3140080F81C80D8E7AA68C0E70021484600F0FE
:10B324006EF92846FFF7BAFE01E00D28F9D0002394
:10B33400236087E7304600F0B5F8BAE7002BB9D1AF
:10B34400304602B0BDE8F04700F0B0B8B8B600200F
:10B35400C4B60020B0B6002044B600208CDC020045
:10B36400C0B60020FFFFB400348E002070B5EFF3A8
:10B37400108672B60C4A9468012384B993600B4B0F
:10B384000B4DD3F8801029401160C3F88050D3F8D6
:10B39400841051604FF0FF32C3F8842023460370B9
:10B3A40006B962B670BD00BFC8B6002000E100E077
:10B3B400FC06FFBD084B9A6810B55AB150B9EFF3BB
:10B3C400108172B6054A1C6814605C685460986009
:10B3D40001B962B610BD00BFC8B6002000E100E0AC
:10B3E4000346405882B028B100225A505B5801935A
:10B3F400019B012002B07047F8B5224B4579224EDB
:10B4040043F82520214B224A9B1ADB0804461804E2
:10B4140006EBC503EF001B7933B140F002001D4970
:10B4240001F028F90820F8BD23680A88C3F8082524
:10B4340094F904308A78002BADBF03F1604103F026
:10B444000F0C154901F561414FEA4212D2B2B4BF63
:10B4540001F80C2081F800234FEA531C01220F4904
:10B4640003F01F0302FA03F341F82C30F31940F000
:10B4740003000B4946F835401A7101F0FBF800202F
:10B48400D1E700BFDCB60020D4B60020ECD1020026
:10B4940094D10200A6DC020014ED00E000E100E01B
:10B4A400C8DC0200036801221A60704703680122A5
:10B4B4005A60704773B501F15005AD000068ADB234
:10B4C4004FF480348C400026C0F80843C0F8484349
:10B4D400465101F5A8714559019522F07F42019D1D
:10B4E40040F82120C0F844430BB1C0F8044302B033
:10B4F40070BD00002DE9F74F0D4622F07F4402682D
:10B504004FF4803705F150068F408046B60002EBB9
:10B514008500C2F84873B6B2C2F80873D2F80415AD
:10B5240099464FF0000BD0F84035C0F8401542F86A
:10B5340006B05B1A9259009223F07F43012B009AC4
:10B544004FEA850A0CD1264B4FF4806043F0010387
:10B554009847D8F8003043F806B09B590193019BF3
:10B56400D8F80020D2F80465C2F84473A31B23F072
:10B574007F43012B1CD11A4B05F5A875013443F008
:10B58400010342F825404FF480609847D8F8003012
:10B59400D3F804359E4209D1D8F800300020C3F80E
:10B5A4004473C3F8047303B0BDE8F08F0D20FAE7C9
:10B5B4009244C9F1FF13CAF84045D2F80405211A90
:10B5C400013921F07F4103F57F438B42EED30029FB
:10B5D400E2D10134CAF84045D2F804359842DAE79A
:10B5E400E0DC020003680222C3F8442309B1C3F873
:10B5F4000423704700684FF48271FFF7F1BE4FF4E3
:10B60400803303FA01F10368C3F84813C3F808133D
:10B61400704750318900006889B2FFF7E1BE0368C2
:10B62400D3F804057047000090F9043001215A0949
:10B6340003F01F03994002F14003024A42F8231029
:10B64400704700BF00E100E0024B034A1B6810682A
:10B65400184700BFDCB60020D4B6002010B561B195
:10B66400B2FBF3F403FB1424A4B244B9C0E90014FC
:10B6740084608281C381204610BD0E20FCE709202E
:10B68400FAE737B550E8013F9DB2C489254484895F
:10B69400A54228BF2D1B0489A54202BFBFF32F8FEB
:10B6A400002207E0C5EA030540E80154002CE9D173
:10B6B4004FF001028DF803200193019A0A609DF86E
:10B6C400031001F0FF0321B1006810FA82F003B007
:10B6D40030BD1846FBE70A884B889A4209D150E8E6
:10B6E400012FC2EA024240E80123002BF7D10120D6
:10B6F40070470020704737B550E8023F1FFAA3F5A2
:10B70400C488A54202BFBFF32F8F00220DE0C48975
:10B7140025448489A54228BF2D1BC3EA054540E87A
:10B724000254002CE8D14FF001028DF8032001935C
:10B73400019A0A609DF8031001F0FF0321B100682B
:10B7440000EB124003B030BD1846FBE70A884B8873
:10B754009A4209D150E8022FC2EA224240E8022369
:10B76400002BF7D1012070470020704701F01F0221
:10B774004B090121914000EB830000F01EB801F059
:10B784001F0301229A404B0900EB8300D14300F0D0
:10B794002CB84B0901F01F0150F82300C84000F0F9
:10B7A4000100704710B5034653E8000F0A4643E80A
:10B7B400002494F0000FF7D110BD10B5034653E8F0
:10B7C400002F42EA010043E8000494F0000FF6D190
:10B7D40010BD10B5034653E8000F00EA010243E828
:10B7E400002494F0000FF6D110BD10B5034653E8C1
:10B7F400002F02EA010043E8000494F0000FF6D1A0
:10B8040010BD10B5034653E8002F02EB010043E8D6
:10B81400000494F0000FF6D110BD10B5034653E8B0
:10B82400002FA2EB010043E8000494F0000FF6D1CE
:10B8340010BD0121FFF7C1BF0021FFF7CABF10B53A
:10B8440090B1D0E9012301689B1ADBB20A60013B85
:10B85400DBB2FF2B026802D10020107110BD116809
:10B864004C1C14600B70F2E70E20F7E773B5054625
:10B8740000240DF107008DF80740FFF777FD2A68D3
:10B88400696813688B420ED9591E116013F8010CB4
:10B89400AB68EC682E8A5B1A1179DBB2994238BF27
:10B8A400137106FB00449DF80700FFF783FD204653
:10B8B40002B070BD37B5054600230DF107000C46F4
:10B8C4008DF80730FFF752FD2A681368591C116080
:10B8D400EA68A41A2A8AB4FBF2F41C709DF80700E3
:10B8E400FFF768FD03B030BD826810B504462AB185
:10B8F40043690168006998470023A36010BD0EB432
:10B9040003B5039921B104AB01AA019300F06EF8C9
:10B9140002B05DF804EB03B07047826830B4046889
:10B92400551C8560A154D0E901329A4202D330BC3F
:10B93400FFF7DABF30BC70472DE9F84F9946DDE9CF
:10B944000A431546824688460A460127AA420FD270
:10B954004F4538BF4F4613F0010B01D164B90024A1
:10B964000126B9F1010F1CD909F1FF396E43F8E73B
:10B974000137B2FBF5F2E9E79B0710D5B9F1000FE7
:10B9840014BF20263026BC42EAD9013C3146504639
:10B99400FFF7C3FF002CE2D0BC42F6D1E0E720263B
:10B9A400F1E7B8FBF6F39D42E0D9DFF83C90B8FB31
:10B9B400F6F3504619F8031006FB1388FFF7ADFFA2
:10B9C4003346AB42B6FBF5F6F1D2BBF1000F00D023
:10B9D40034B9BDE8F88F20215046013CFFF79DFFA4
:10B9E400BC42F8D8F5E700BFE6DC02002DE9F74FCA
:10B9F400064617468846002900F06C8118F8011B9A
:10BA040049B9337B002B00F06581304603B0BDE8B3
:10BA1400F04FFFF769BF252940F09380002598F87F
:10BA240000102D29424608F1010806D0302907D01C
:10BA34002B2908D145F00405F1E745F00105EEE7AF
:10BA440045F00205EBE72A2943461AD13B681A1D43
:10BA54001C683A60424613782E2B21D101324FF0F4
:10BA6400000A4FF00A0C104610F8011BA1F1300E29
:10BA7400BEF1090F16D80CFB0A11A1F1300A0246D7
:10BA8400F1E7002413F8011CA1F130000928E2D8E1
:10BA94000A2202FB0411A1F130041A460133F1E732
:10BAA4004FF0000A12F8011B01F0FB0068289046D1
:10BAB400F8D0782909D86F290CD863293DD021D82A
:10BAC40025293ED0582900F0B18098F80030002B89
