:0200000270008C
:101000000000012019120700011207000312070057
:101010000512070007120700091207000000000070
:10102000000000000000000000000000E593070041
:101030000D120700000000000F1207001112070038
:1010400013120700131207001312070013120700F0
:1010500013120700131207001312070013120700E0
:1010600013120700131207001312070013120700D0
:1010700013120700131207001312070013120700C0
:10108000252F070013120700131207001312070081
:101090001312070013120700319007001312070004
:1010A0001312070013120700131207001312070090
:1010B00013120700131207000000000000000000D8
:1010C0001312070013120700131207001312070070
:1010D0007528070013120700131207000000000014
:1010E0000000000000000000000000000000000000
:1010F00000000000000000000000000000000000F0
:1011000000000000000000000000000000000000DF
:1011100000000000000000000000000000000000CF
:1011200000000000000000000000000000000000BF
:1011300000000000000000000000000000000000AF
:10114000000000000000000000000000000000009F
:10115000000000000000000000000000000000008F
:10116000000000000000000000000000000000007F
:10117000000000000000000000000000000000006F
:10118000000000000000000000000000000000005F
:10119000000000000000000000000000000000004F
:1011A000000000000000000000000000000000003F
:1011B000000000000000000000000000000000002F
:1011C000000000000000000000000000000000001F
:1011D000000000000000000000000000000000000F
:1011E00000000000000000000000000000000000FF
:1011F00000000000000000000000000000000000EF
:10120000FEE7FEE7FEE7FEE7FEE7FEE7FEE7FEE7B6
:10121000FEE7FEE700F002B8FFF7FCBF0F484FF013
:101220000701884385460E4880470E48016841F40F
:1012300070010160BFF34F8FBFF36F8F00F01AB8DA
:1012400009480A490A4A884207D0521A05D0037849
:1012500001300B700131013AF9D1704700000120D3
:101260008D20070088ED00E02497070068590020D2
:101270007C590020384939480A1A02D00722914384
:101280008D46374937480A1A06D00722914381F321
:101290000988022282F3148833483449344A00F022
:1012A0003CF834483449354A00F037F83448354979
:1012B000354A00F032F835483549364A00F02DF805
:1012C00035483649364A00F028F836483649374A14
:1012D00000F023F836483749374A00F01EF83748FF
:1012E0003749002200F031F836483749002200F033
:1012F0002CF8364A904726482649884205D002688D
:10130000043003B4904703BCF7E700208646EC4660
:10131000002000212E4A9047FEE7884214D0521A3E
:1013200012D003460B4313430324234206D1036820
:1013300004300B600431043AF9D17047037801306E
:101340000B700131013AF9D17047884202D0027026
:101350000130FAE7704700000000012000F800208B
:10136000000001200000012018D007007C59002057
:10137000D0590020D4130700D41307003896070073
:1013800018D007007C5900207C59002038970700AE
:1013900038970700389707003897070038970700F5
:1013A00038970700389707003897070015D00700CF
:1013B0006CD00700D0590020D0590020D05900200F
:1013C000F4A10020F4A10020F4A1002041120700A4
:0413D0009515070068
:1013D40008B506F06FFB06F03BF90028FBD10B4D76
:1013E400642445F001054FF47A40A847013CFAD142
:1013F400BFF34F8F0649074BCA6802F4E0621343F8
:10140400CB60BFF34F8F00BFFDE700BF70980700AC
:1014140000ED00E00400FA051F2808B504D90449CA
:1014240040F2CD1004F0E6FD4FF0A04008BD00BF2F
:101434003897070010B50446FFF7EEFF0123A340D9
:10144400C0F8083510BD10B50446FFF7E5FF04F5F4
:10145400E074032340F8243010BD10B50446FFF7B0
:10146400DBFF0123A340C0F80C3510BD70B507287D
:101474005FD8DFE800F00441464B505F3F3F19203E
:10148400FFF7E1FF1920FFF7E8FF1D20FFF7DBFF5F
:101494001D20FFF7E2FF1E20FFF7D5FF1E20FFF7F8
:1014A400DCFF1F20FFF7CFFF1F20FFF7D6FF02202E
:1014B400FFF7C9FF0220FFF7D0FF1A20FFF7C3FF91
:1014C4001A20FFF7B7FF1C4E0F2416F8015B2846BD
:1014D400FFF7B9FF013C2846FFF7BFFF14F0FF04F4
:1014E400F3D11B20FFF7AFFF1B20FFF7B6FF1F2030
:1014F400FFF7A0FF192000E01E20BDE87040FFF7B1
:1015040099BF1E20BDE87040FFF7A7BF1920FFF761
:10151400A4FF1D20F6E71920FFF77EFFD0F804355D
:10152400DA4302F0007203F00073C0F80825C0F833
:101534000C3570BD1D20E0E77698070007B50B4613
:10154400064C07490092641AE4082404024605493B
:1015540044F0010006F003FAFFF73AFF4C96070047
:101564004C9607006397070008B50649064B5B1ABB
:10157400DB081B040246054943F0010006F0DCF9D0
:10158400FFF726FF4C9607004C9607009A97070032
:10159400F0B5CFB003AE78220021202730A8376001
:1015A40008F018F801F072FC002210464FF4805144
:1015B40001F03EF8024608B1FFF7D6FF2E48C0F509
:1015C400FC2101F035F801460028F5D12B482C4CBC
:1015D40005F0E4FF05F00AFF2A4B2B49E41AE4085E
:1015E400240444F00305284606F0A2F927492846B6
:1015F40006F09EF901F0C2FD0028DDD124493A46E7
:101604000EA801F00BFE234840230EAA1EA901F0E8
:101614000DFD0028D0D1204B93E8030004AF87E8E8
:10162400030008221D49284606F086F906AB0093FC
:101634001B49019608233A4630A801F085FD00288D
:10164400BAD11849284606F073F92846164906F017
:101654006FF9164800F098FE0028ADD105F0F8FFA8
:101664000028FBD1124944F0010006F061F905F0AD
:10167400EFFF0028FBD19FE700100700AD2907000A
:101684004C9607004C960700B5970700C1970700D2
:10169400889807002CA2070060000010DD9707005F
:1016A40014A2070006980700209807007114070089
:1016B4003C9807000023C0E902328B881A44B1F930
:1016C400063002611A44C0E90011426108880038FA
:1016D40018BF012070474268118838B5034641B1EC
:1016E40002F110014160118A29B9C2680168FFF74B
:1016F400E1FF002038BD907811891C6900F03005A5
:10170400302D13D1957C05F03005302D15D19188FD
:10171400611A19610021908AB2F9162008441969E6
:1017240001441961114459610120E3E700F0F00418
:10173400202C08D150894143EDE700F0C0008028F7
:1017440008BF0421E7E700F0C000802808BF042197
:10175400002DE0D1986801309860DCE770B54668E8
:1017640004460D4663681A88AA4204D19B7803F0A4
:101774000F03082B07D12046FFF7ADFF6368B34280
:10178400F0D1002070BD0120FCE743681A44426098
:1017940011B101399A4201D10120704713F8010BAC
:1017A40001F8010FF6E7836810B504460BB9002071
:1017B40010BD0368012298470028F8D0A368013BB4
:1017C400A360F5E72DE9F3410F460DF107018046CB
:1017D400FFF7E9FF054620B90025284602B0BDE819
:1017E400F0819DF907309DF80740002B13DA04F0CF
:1017F4007F0407260DF107014046FFF7D4FF0028B8
:10180400EAD09DF8072002F07F03B3401C4313067F
:1018140006F1070601D43C60DFE7232EEAD1DBE7BB
:1018240070B541688A7802F00F05082D86B003462A
:101834001FD103691C6800260CB906B070BD23686B
:1018440062689D68267329466846FFF733FF63681C
:10185400049304F10C030593AB7803F0C003802BCD
:1018640008BF231D684608BF0493FFF7D9FFA46887
:10187400E2E73F2A24D802F0300010280DD15A693B
:1018840000201070072DCC6818690CD10146204641
:1018940006B0BDE8704000F01FB89006F2D55B6951
:1018A40000221A80C9E70A89214624B106B0BDE89E
:1018B400704007F05DBE06B0BDE8704007F08ABE18
:1018C40002F0C0018029B8D10069002101609206AC
:1018D40044BF5B691980B0E77FB50A460146684694
:1018E400FFF7E8FE30B16846FFF79AFF6846FFF756
:1018F400F2FEF7E707B05DF804FB000030B50446DC
:1019040085B01546A9B90268114B9A4211D0102D21
:1019140006D82A4669462046FFF7F0FF05B030BDD9
:10192400102269462046FFF7E9FF0028F6D0103D53
:10193400EDE7A368AB4201D20020EFE723682A4613
:10194400204698470028F7D0A3685B1BA360E5E70F
:101954008F1707002DE9F3410F4601A9804616466B
:10196400FFF730FFA0B1019C621C4FF0000504D2C8
:10197400BB7803F0C003802B01D1284608E03B89E3
:101984009342FAD3224631464046FFF7B7FF355516
:1019940002B0BDE8F08173B50D4601A906461446B0
:1019A400FFF710FFB0B1019AB2F5803F12D2AB78C5
:1019B40003F0C003802B02F102010BD02B898B4270
:1019C40008D32146304621F8022B02B0BDE870400E
:1019D400FFF794BF002002B070BD000010B5034CA7
:1019E40082600022C0E90041C26010BD8F17070069
:1019F4002DE9F341002506460F46A8462C460DF175
:101A040007013046FFF7CFFEC0B19DF807C0A4F12F
:101A140020030CF07F02C4F1200102FA03F322FA3E
:101A240001F10B43A2401CF0800F45EA020543EA92
:101A3400080804F1070404D1C7E9005802B0BDE85E
:101A4400F081462CDBD10020F8E737B50D46694616
:101A54001446FFF7CDFF70B12B89082B0DD1DDE9BA
:101A64000032C4E90032DDE90001914208BF984226
:101A74000CBF0120002003B030BD042B03D1009B18
:101A840023600022EFE7022B03D1009B23809BB24B
:101A9400F7E7012B04D1009B237003F0FF03F0E769
:101AA4000020E8E737B50D4669461446FFF7A0FF66
:101AB40030B12B89082BDDE9001203D1C4E90012EF
:101AC40003B030BD042B4FEAE17009D121600B460D
:101AD4000246824208BF8B420CBF01200020EFE780
:101AE400022B03D10BB22380DA17F2E7012B02D1C8
:101AF4004BB22370F8E70020E2E7F7B51F46002356
:101B04003B700D460B70136001A904461646FFF79F
:101B140059FE38B9A36813B1002003B0F0BD012306
:101B24003B70F9E7019C002CF9D0E30804F00704AA
:101B340033602C70F1E713B50446052921D8DFE89A
:101B440001F0030F1720201E012201A92046FFF7F0
:101B5400D5FE18B19DF90430002BF5DB02B010BDA1
:101B640008220021204602B0BDE81040FFF7C6BE9F
:101B740001A9FFF727FE0028F0D0019AF1E704221B
:101B8400EFE70020EAE773B50D4601A90446FFF725
:101B940019FE064618B90026304602B070BD94E816
:101BA4000F0085E80F0001998A42F4D3A960A36865
:101BB4005B1AA360F0E700002DE9F0435668B378A0
:101BC40013F0C00489B007468C46154603D0402C58
:101BD40069D000240CE003F00F02604903F03003E5
:101BE400202B51F8228025D006D8E3B1102B17D032
:101BF400204609B0BDE8F083302BF9D16B693188F8
:101C04001980072A09D121463289286907F0E2FCA4
:101C14006B682969D868FFF75FFE2A69696840E044
:101C24006B6901221A702A693146434609B0BDE83E
:101C3400F0431847BCF1020FD5F8149024D1042ABC
:101C440022D804A9FFF79FFF04460028C1D0069BB1
:101C54002BB16968B9F800304A899A4205D8059BC6
:101C64007B60069B002BB4D1C2E708892A6903FB79
:101C7400002204A8C04728B1B9F800300133A9F8FC
:101C84000030E4E70446EAE7B9F8003072899A4282
:101C94009FD931892A69581C03FB0122A9F8000045
:101CA40031463846C1E7D2F81080464656F8043B20
:101CB40023B909B0BDE8F043FFF73DBF022914D1B1
:101CC40004A9FFF760FF002883D0D8F800306968C2
:101CD400324604A89847044600283FF47AAF069B8E
:101CE400002BF2D1059B7B6082E7012926D00529D0
:101CF4002CD000297FF46DAF0C460DF1040901349A
:101D04000B2C3FF466AF012249463846FFF7F6FD37
:101D140000283FF45EAF19F9013B002BEFDB104BB9
:101D2400049301ABCDE90534002307936968D8F81F
:101D34000030324604A89847044659E7082201A90E
:101D4400FFF7DCFD08240028E9D142E704220DEB6B
:101D54000201FFF7D3FD0424F5E700BFC89807008C
:101D64008F1707002DE9F04790B00446002604A819
:101D7400CDE90266FFF79EFCA3683BBBDDE90534B1
:101D840004A89D78FFF7A7FC0028F7D115F0300FC1
:101D940003D1059B1B8803B10134002C00F0B480EF
:101DA400630902A90022934240F0A78010AA02EB23
:101DB400830304F01F0453F8383CC4F120044FF0AB
:101DC400FF30E040C31A584258410DE00DF10303BF
:101DD40001AA0DF102012046FFF78FFE38B99DF8E4
:101DE4000330002BCAD1002010B0BDE8F087019F5A
:101DF40004A83946FFF7B2FC002857D1B7424CD3A8
:101E0400059D059A937803F00F03082B7ED004A850
:101E1400FFF761FC059B9D42F3D14FF0FF36B742BB
:101E24009DF8029039D3089BD4F808801D68A368F4
:101E340085B39845A0D12B68D3F800A0BAF1000F60
:101E440008D04B463A4629462046D0470028CAD0F7
:101E5400AD68ECE7D3F808A0BAF800309F42F7D198
:101E64006A6851460AA8FFF725FC6B680E9305F1D2
:101E74000C030F939AF8023003F0C003802B04BFC5
:101E84002B1D0E9301232B730AAA49462046FFF704
:101E940093FEDBE798457FF46FAF9DF80210204670
:101EA400FFF749FE00287FF467AF9CE7059B9B780A
:101EB40013F0300F0FD1069A3F2A0CD8510910ABFA
:101EC40003EB810102F01F020123934051F8382CE7
:101ED400134341F8383CD4F80C809DF80250B8F113
:101EE400000F04D004AB2A4639462046C04704AA52
:101EF40029462046FFF760FED4E751F8040B013071
:101F04007FF471AF01324EE701206DE7168886E752
:101F140070B50C460646154611462046FFF7DCFC14
:101F24002A4621463046BDE87040FFF71BBFF0B596
:101F340085B0CF680C46694605461646FFF723FE72
:101F440068B1E06858B1A37803F03003202B32461F
:101F54003946684605D1FFF7DBFF019B6B6005B08E
:101F6400F0BDFFF7FFFEF8E713B50C466946FFF72F
:101F74003FFD60B1DDE900134A0842EAC372C907B4
:101F84004FEA530344BFD243DB43C4E9002302B006
:101F940010BD37B50D4669461446FFF7E5FF70B12D
:101FA4002B89082B0DD1DDE90032C4E90032DDE9CB
:101FB4000001914208BF98420CBF0120002003B0E9
:101FC40030BD042B03D1009B2360DA17EFE7022B0B
:101FD40003D1BDF900302380F7E7012B03D19DF92C
:101FE40000302370F1E70020E9E713B504220C4622
:101FF4000DEB0201FFF782FC08B1019B236002B0E4
:1020040010BD1146FFF7F1BF13B508220C4669460F
:10201400FFF774FC18B1DDE90023C4E9002302B022
:1020240010BD1146FFF7F0BF4FF0704393F8E02F57
:10203400062A10D1D3F8E42F12070CD1D3F8E80FF5
:1020440000F0F003302B08D000F0E000A0F14003D2
:1020540058425841704700207047012070474FF0A4
:10206400704393F8E02F062A0CD1D3F8E42F12071B
:1020740008D1D3F8E80F00F0F000A0F13003584283
:10208400584170470020704708B5FFF7CDFF40B1B5
:102094004FF080536C4AD3F82433C3F30423C2F8BB
:1020A4004035FFF7DCFF10B1684B694A5A67FFF708
:1020B400BBFF48B14FF080534FF08042D3F8443215
:1020C400C3F34233C2F83C35FFF7C9FF30B1614A6C
:1020D400D2F8FC3023F08073C2F8FC30FFF7A4FF81
:1020E40040B14FF080430022C3F80C21C3F8102103
:1020F400C3F83825FFF7B3FF20B14FF08043032224
:10210400C3F8A025FFF7ABFF60B1534B0522C3F81A
:1021140010260122C3F888260022C3F818263F227D
:10212400C3F814264FF0704393F8E02F062A50D1D9
:10213400D3F8E42F11074CD1D3F8E83F03F0F003B0
:10214400502B46D14FF08052444BD2F80414C3F8BC
:102154002015D2F80814C3F82415D2F80C14C3F8C7
:102164002815D2F81014C3F82C15D2F81414C3F897
:102174003015D2F81814C3F83415D2F81C14C3F867
:102184004015D2F82014C3F84415D2F82414C3F827
:102194004815D2F82814C3F84C15D2F82C14C3F8F7
:1021A4005015D2F83014C3F85415D2F83414C3F8C7
:1021B4006015D2F83814C3F86415D2F83C14C3F887
:1021C4006815D2F84014C3F86C15D2F84424C3F847
:1021D4007025FFF729FF48B14FF080534FF080423C
:1021E400D3F8583203F04F03C2F8E43EFFF71CFF64
:1021F40048B14FF08043D3F80024D20744BF6FF0B6
:102204000102C3F800244FF08053D3F83021062A8A
:102214000AD1D3F83431062B01BF114AD2F83C3726
:1022240043F48063C2F83C370A4AD2F8883043F456
:102234007003C2F88830BFF34F8FBFF36F8F094B21
:10224400094A1A6008BD00BF0030014000C00740C1
:102254000DF0ADBA00ED00E00050004000C00040B9
:10226400001000407C5900200090D003008800F04A
:102274000100704741DF7047014B01221A7070471B
:10228400F05D002008B505F015FC05F0E1F9002823
:10229400FBD1BFF34F8F0549054BCA6802F4E062D6
:1022A4001343CB60BFF34F8F00BFFDE700ED00E0A9
:1022B4000400FA0508B50948094B0A49C01AC008C0
:1022C400000440F0040005F033FB074B07480022EC
:1022D4001A70BDE8084002F0F3BB00BF4C9607003B
:1022E4004C960700EC980700F05D00208922070057
:1022F40008B50748074B0849C01AC008000440F055
:10230400030005F015FBBDE80840FFF7D3BF00BF8D
:102314004C9607004C96070002990700042810B554
:10232400044609D802280DD812D00B4B1B6893B170
:102334002046BDE810401847831F012BF5D8FFF74E
:10234400B9FFF2E705494FF4701000F0EDFAECE73D
:1023540002F0A8FAE9E710BDF45D0020F5220700B9
:1023640008B50648064B0749C01AC008000440F0E7
:10237400040005F0DDFA002008BD00BF4C960700FC
:102384004C96070016990700F8B5744B744C7549C0
:10239400E41AE408240444F004050646284605F03B
:1023A400C7FA714B00201E6002F0A0FB002840F029
:1023B400CF8000F073FC012800F0C380022800F0F5
:1023C400C980002840F0C4804FF08043674ED3F8A2
:1023D4000014326AC80324D54FF48031C3F80014C2
:1023E400012A44D14FF440535A68614B9A4204D1B4
:1023F40096F86032726B012B7CD102F089FCB269D1
:1024040096F8A132012B7AD15A49284605F090FA60
:102414004FF08043D3F81C3513F0B10F7FD05649E9
:102424002BE0D3F8201501F0F801A8290AD1D3F83C
:102434002015C90706D5D3F8201501F05601C3F8B5
:102444002015CDE7012A12D14FF440535A68484B66
:102454009A4251D1726B012748484FF4805103F0DE
:1024640095F9002854D1464944F0020002E0454958
:1024740044F0030005F05CFA4349284605F058FA95
:102484004FF4701400F060FD404A2021182003F03E
:1024940089FC08B1FFF768F84FF08043D3F81C2596
:1024A40002F0F802B02A09D1D3F81C25D20742BFA2
:1024B400D3F81C2502F04E02C3F81C25FFF750FF89
:1024C400002845D12046324900F02EFA314800F068
:1024D4001DFF00283CD13049284605F029FA00F0B8
:1024E40079FD03F0E1FC05F0B3F80028F7D1FFF71C
:1024F400C1FEF4E70027AFE702F00AFCB269014627
:10250400264803F043F900287FF47EAF2449ABE763
:1025140002F0FEFBB269002F3FF472AFEFE702F066
:1025240051FBA8B91F4D28701F4802F0C9FA2B7837
:1025340023B91E494FF4017003F05CFD00F03AF832
:1025440001E0FFF7B7FE1A4944F0010005F0F0F985
:102554000320F8BD4FF4A02494E700BF4C96070075
:102564004C96070030990700F45D0020E8750020C0
:10257400DBE5B151D8990700089A07004878002094
:102584007599070047990700E5990700D05900207D
:10259400F522070021230700359A070089780020D7
:1025A400B0990700F05D00207D220700459A0700DE
:1025B400299A070070B5184B184C194D1949E41A9B
:1025C400E408240444F004064FF48052304605F035
:1025D400B3F9D5F880201449304605F0ADF94FF031
:1025E400FF33C5F88030C5F88031C5F88430C5F8AC
:1025F400843101F0FBFD20B10C4944F0010005F0E9
:1026040097F905F025F80028FBD1BDE870404FF498
:10261400805000F039B800BF4C9607004C96070074
:1026240000E100E0BB9A0700F19A07001B9B07003A
:102634000346C1F30B00F0B520BBB3F5FE2F21D840
:102644000139090B1A0B01EB133101264FF08044B9
:1026540002F01F03550906FA03F3032D05D8DFE83A
:1026640005F002080B0EC4F8003601329142EFD295
:10267400F0BDC4F80436F8E7C4F81036F5E7C4F83A
:102684001436F2E70720F3E738B50446274800225A
:10269400C0F5FE21FFF7CCFF054668B1244A254B5F
:1026A40025499B1ADB081B04024643F0010005F090
:1026B40043F92846FEF758FF02F02AFB1F4B9B699B
:1026C40003F6FF7323F47F6323F00F03002219182A
:1026D4001046FFF7ADFF054668B1154A154B18497A
:1026E4009B1ADB081B04024643F0010005F024F9A1
:1026F4002846FEF739FFEFF305820023D4E900549E
:1027040083F3148883F3108883F3118883F3138885
:10271400C2F308021AB10B496E2003F06BFC85F377
:1027240008884FF0FF339E46204738BD001007004D
:102734004C9607004C960700509B0700E875002054
:10274400879B0700BB9B0700F7B5264B264A9B1ABD
:10275400DB081B040C4602462449064643F00400E9
:1027640005F0EAF8B4F1807F36D321498F2003F0D5
:1027740041FC6FF07F431F4FA34228BF2346D7F885
:102784000455E41A1D44631E942B98BF9634746058
:10279400347B25F07F4598BF963D032C03D914491B
:1027A400772003F027FC04F5A8734FF4F86047F88A
:1027B4002350114B43F001039847104BA2001344DC
:1027C40000221A601B680193019B4FF48033A340DD
:1027D400C7F8043303B0F0BD952CCAD8044990203F
:1027E400C5E700BF4C9607004C960700419C0700C4
:1027F400579C070000400240009D070040410240F2
:102804001FB518490B7853BB4FF08043A024D3F86D
:102814001824D2035CBF01229A60134B0022C3F830
:102824000021D3F8000103900398C3F84021D3F8A2
:10283400400102900298C3F84421D3F84401019066
:1028440001980A4880F8244310244460C3F80825FA
:10285400022001229A601A60C3F804030A7004B0CB
:1028640010BD00BFF85D00200040024000E100E020
:10287400244BF7B5D3F8042152B123490A68013235
:102884000A600022C3F80421D3F804310093009BAA
:102894001E4C1F4E1F4F33680BB300233360336845
:1028A4000193019B1C4D1D4B1D49ED1AED082D0490
:1028B40045F004052246284605F03EF8227B1949D6
:1028C4004FF4803393400F4A2846C2F80833224617
:1028D40005F032F8616851B12046FFF735FFBE427A
:1028E40004F1100401D103B0F0BD3E46D3E7A16862
:1028F40011B12046FFF728FF2368002BEFD098473B
:10290400EDE700BF00400240FC5D00208859002034
:1029140040410240444102404C9607004C96070057
:10292400D89C0700EA9C0700F8B5114A114B124ED7
:102934009B1A3768DB081B043A4604460D4643F0ED
:1029440004000E4904F0F8FF3A7B4FF480339340BF
:102954000B4AC2F808334CB13668FFF751FF3560B3
:1029640021463046BDE8F840FFF7EEBEF8BD00BF93
:102974004C9607004C96070084590020D89C070009
:102984000040024070B5074B1D6804460E46A8601F
:10299400FFF736FF2E6021462846BDE87040FFF75A
:1029A400D3BE00BF80590020034A044B1068D3F8FB
:1029B400043503EB00607047FC5D002000400240DA
:1029C400014B01221A707047005E00202DE9F3418B
:1029D400274FFB6A7E6ABC6CAC2B29D17B6B1C44F1
:1029E400F61A244B244D254A25490096ED1AED0884
:1029F4002D0445F004082346404604F0B0FFFB6A6A
:102A0400AC2B06D11D483246A4F5804106F05EFD8C
:102A140028B11A483246214606F058FD70B91949C2
:102A2400404604F085FF0024204602B0BDE8F08152
:102A3400002CD6D102F080F90446D2E7124933467D
:102A44002246404604F081FF04F002FE0028FBD138
:102A540000F0C0FA2046314601F0AAFB04460028E3
:102A6400E2D00A4945F0010004F062FFDCE700BF50
:102A7400E87500204C9607004C96070000100700EC
:102A8400069D07003B9D0700729D07009F9D070060
:102A94002DE9F04F3E4B17463E4A9B1A87B0DB08A0
:102AA4001B040493814243F0040305460E4603933A
:102AB40005D13949184604F03BFF002464E003D2F1
:102AC40036494F2003F096FAC5F30B031BB1334983
:102AD400512003F08FFA731BB3F5805F4FEA133A6A
:102AE40003D22E49542003F085FA00F02DFABAF1EE
:102AF400080F28BF4FF0080A07F6FF794FEA0A3398
:102B0400DFF8A4B005934FEA1939002FD5D0CA4590
:102B14002CBFCDF80890CDF808A0029938BFDDF895
:102B240014804FF00002284628BFB84601F0FAFA94
:102B3400044648BB1A490398CDF800802B46324618
:102B440004F00DFF08F10302234622F0030231468C
:102B5400284601F0A9FA0446B0B9029BA9EB03097F
:102B6400DBF830304344CBF8303001F0AFFFA7EB53
:102B740008074544464404460028C6D0049B094936
:102B840043F0010004F0D4FE204607B0BDE8F08F06
:102B94004C9607004C960700B99D0700C89D070096
:102BA4004C9E07006D9E0700E87500202DE9F04754
:102BB40002F0D2F82F4C304BDFF8DCA02F49DAF8C2
:102BC4004860DAF83080DAF83450E41AE40824046F
:102BD40044F004090746484604F0AAFE06F50053EB
:102BE4005A68274B9A4208D0264944F0010004F061
:102BF4009FFE03252846BDE8F087DAF83030AB4263
:102C04001E4405D12049484604F092FE0025F1E710
:102C1400BBB94FF440521178142982BF1B49526941
:102C2400B2FBF1F206F5005198BF1A460878142851
:102C340082BF4B691549B3FBF1F34846144904F0CC
:102C440084FEA5EB080202F6FF7222F47F6222F0F2
:102C54000F02314607EB0800FFF71AFF054628B1BB
:102C64000C4944F0010004F063FEC3E7BDE8F047FB
:102C740001F02CBF4C9607004C960700A69E070057
:102C8400DBE5B151CB9E0700FF9E070040420F00D9
:102C9400119F07003A9F0700E87500202DE9F047CF
:102CA400634B644D644E6549ED1AED082D0445F0FF
:102CB4000407384604F03CFEF36AAA2B00F09C801B
:102CC4000CD8012B22D0A52B00F08A8045F00300FC
:102CD4005B4904F02DFE0020BDE8F087AC2BF5D154
:102CE4005849384604F024FE5749384604F020FE7B
:102CF400FFF75CFF0446002800F08880534945F044
:102D0400010004F015FE4FF0010824E05049384654
:102D140004F00EFED6F82480D6F848A001F0F8FF9F
:102D2400346B4C4900EB0409384604F001FE336B64
:102D34000AEB0301894514BFA8EB040200224846AC
:102D4400FFF7A6FE044670B1434945F0010004F0C4
:102D5400EFFD4FF00008F36A4049224645F00100B8
:102D640004F0F3FD14E001F0D3FF2246414603F0E2
:102D740025F9B26A904204462BD13949384604F009
:102D8400D7FD0123C6E90743C6F818804FF00008B1
:102D94003448DFF8F49001F0B1FF0023324889F899
:102DA400003001F093FE99F80030044623B92F490E
:102DB4004FF4D17003F01EF98CBBB8F1000F35D07D
:102DC400336A012B32D13846294904F0B1FD02207F
:102DD40082E70346274945F0010004F0B6FDD5E734
:102DE4002549384604F0A4FDFFF7E0FE4FF0010842
:102DF4000446002CCCD0AEE72049384604F098FDB8
:102E0400FFF7E4FD4FF000080446F2E7FFF7DEFDAC
:102E1400044608B11A4972E74FF00108B8E745F0D3
:102E24000100184904F084FD032055E7012053E70D
:102E34004C9607004C960700E8750020539F070046
:102E44005FA0070008A0070016A0070033A0070032
:102E5400749F07007E9F07003A9F070078A0070031
:102E6400999F07000C760020C5290700C89D07001C
:102E7400AAA00700AE9F0700F69F0700FF9F070068
:102E840049A0070006A10700005E002010B5002439
:102E9400D4F8F83F013304D1084940F6F87002F041
:102EA4004BFFD4F8FC3F013307D1BDE810404FF489
:102EB400FC2140F6FC7002F03FBF10BD001007007B
:102EC4000A4AD2F800347BB109480023D2F8081525
:102ED400D940C90748BF03F5C07103F1010348BFD6
:102EE40042F82100072BF1D1704700BF00000140D8
:102EF4003546526E08B50748074B0849C01AC00842
:102F0400000440F0030004F013FDBDE80840FFF79F
:102F1400D7BF00BF5C9607004C96070020A10700AE
:102F240007B5084B0022C3F80021D3F80031019300
:102F3400019B04F0BFFD04F08BFB0028FBD103B020
:102F44005DF804FB00000140F8B5194E33784BBB23
:102F5400184C1949194B641AE408D3F800242404C2
:102F640044F00304FAB1D3F8047515493A462046EF
:102F740040F6165504F0E0FCBD42B8BF3D46A5F549
:102F84004865FFF79DFF2A460E49204604F0D4FC0D
:102F94000D492846FFF7F6FC0C4B4FF480321A60BB
:102FA40001233370F8BD0A49204604F0C1FCF7E759
:102FB400015E00205C9607004C960700000001406B
:102FC4002EA1070047A10700F92E070000E100E049
:102FD40079A10700034BD3F800340BB1FFF770BF9E
:102FE400704700BF00000140034620B131B100200A
:102FF400C1E90003704748F21050704748F213507B
:10300400704730B1036848F240508B4208BF00203B
:10301400704748F21050704728B148F2115091425D
:1030240008BF0020704748F21050704770B506463C
:103034000C461D46FFF7D8FF50B9B3794AB1AB42ED
:103044000AD11146204600F01AF908B9044B23604E
:1030540070BD48F21050FBE748F21150F8E700BF8A
:103064007052464D2DE9F0470C4606460F4920465E
:10307400DDE9088915461F46FFF7C3FFA0B9636859
:103084005A79494652004046FFF7C6FF60B94DB130
:10309400CDF820803B462A4621463046BDE8F0471D
:1030A40000F0F5B848F21050BDE8F0877052464D74
:1030B40010B5044638B149B10B684160984708B966
:1030C400044B236010BD48F20150FBE748F2105056
:1030D400F8E700BF6E524648F0B4134648B107689B
:1030E400094EB7420AD161B12AB14368F0BC5B68AA
:1030F400184748F201531846F0BC704748F202538F
:10310400F9E748F21053F6E76E524648F0B460B15E
:1031140007680C4EB7420CD171B143681568DC687E
:10312400A5420CD3F0BC9B68184748F20150F0BC90
:10313400704748F20250FAE748F21350F7E748F2B2
:103144001450F4E76E5246482DE9F0410446DDE997
:10315400067815461E46FFF7ABFF60B9324629468E
:103164002046FFF7B9FF30B9424639462046BDE84C
:10317400F041FFF7CBBFBDE8F0810000F8B50A4F7E
:103184000A4C0B4EE41B0123E40833700025A542CE
:1031940003D1022333700020F8BD57F83530984727
:1031A4000028F9D10135F2E7389607003896070070
:1031B400025E002038B50D46044618B9084933208C
:1031C40002F018FF691E21442046814200D238BD16
:1031D40003780A7800F8012B01F80139F5E700BFFC
:1031E4009FA1070070B50D461446064618B90A4952
:1031F400452002F0FFFE1DB90749462002F0FAFE01
:10320400621E3244013DB24200D270BD15F8013F46
:1032140002F80139F7E700BF9FA1070070B5164611
:1032240004460D46FFF7DEFF3246A919A019BDE892
:103234007040FFF7D7BF38B50D460446FFF7BAFF15
:1032440029466019BDE83840FFF7B4BF13681F2B47
:1032540010B5144607D90022083003F0ACFF08B9B2
:103264002023236010BD48F21450FBE7083003F01C
:103274007FBF083003F04CBF43689B68184708B50C
:10328400436808305A79FFF7C9FF002008BD2DE9CB
:10329400F0430C469BB0084698461746FFF7ECFFF0
:1032A400D4F8049099F80550454528BF454606468C
:1032B4002A46394602A8FFF795FF99F80520229976
:1032C4000AA8FFF7ABFF00960AAB2A4602A904F14D
:1032D400080005F089FB002848F2425018BF00207E
:1032E4001BB0BDE8F0830000831F012B10B504461A
:1032F40002D8002001F0C8FC034B1B681BB1204618
:10330400BDE81040184710BD045E002038B5104BCE
:10331400104C1860104B1149E41AE408240444F0DA
:10332400030004F005FB0020FFF7DEFF0C4801F06A
:1033340071FC054620B9BDE83840094801F028BAB7
:103344000246084944F0010004F0F6FA284638BD64
:10335400045E00204C9607004C960700E9A3070082
:10336400ED320700FCA3070072DF704773DF70477C
:1033740074DF704775DF704776DF70477ADF704718
:103384007CDF70477DDF70477FDF704786DF7047E3
:103394008FDF704790DF7047A8DF7047AADF704760
:1033A400ADDF7047AEDF7047AFDF7047B0DF704707
:1033B400B1DF7047B5DF704762DF704766DF704783
:1033C40013DF7047094A0A4B0A4910B59B1ADB08F8
:1033D4001B040446024643F0040004F0ADFA2146FF
:1033E4000548BDE8104002F085BF00BF4C960700B9
:1033F4006496070026A40700BC960700F0B51822BF
:103404008DB00DEB0200002106F0E4F820230893B0
:103414004748484B4849494CC01AC0080004012594
:1034240040F004008DF818508DF82D5004F080FA07
:103434001623ADF80630424B65700FCB02AE86E81A
:103444000F0002230622237023715923032763717B
:103454000DEB0201FE2304F10900A270E770A371D1
:10346400FFF790FF002861D1BDF806305A19E271C8
:1034740009222272BDF80C20324C1344ADF80C30F2
:10348400314B19221A70FF225A7043229A704FF05E
:103494001022DF70D2F880101971D2F88010090A56
:1034A4005971D2F88010090C9971D2F88020120E4B
:1034B400DA714FF440529189197292892349120AA0
:1034C4005A72CA689A72100AD872100C120E5A7381
:1034D4008A689A73110AD973110C120E5A744FF038
:1034E400805218731974116E9974116E090AD97483
:1034F400116E090C1975116E090E5975516E997575
:10350400516E090AD975516E090C1976526E120E54
:103514005A76314606AA2046FFF726FF30B92078AE
:10352400FFF726FF20782946FFF720FF0DB0F0BDF6
:10353400649607004C96070038A40700275E002015
:10354400ECA90700A8590020085E0020E8750020B7
:10355400F0B50388242B8DB0044651D80BB90DB0B7
:10356400F0BD013B232BFAD801A252F823F000BF8F
:10357400A939070063350700633507006335070081
:1035840063350700633507006335070063350700BB
:1035940063350700633507006335070063350700AB
:1035A40063350700633507006335070035360700C8
:1035B400793607006338070017380700BB3A07005D
:1035C400633507006335070063350700633507007B
:1035D40063350700DD3A07006335070063350700EC
:1035E40063350700633507009F380700633507001C
:1035F40071390700DF380700CB370700F9370700B8
:10360400503B9AB2062AAAD8062BA8D801A252F88F
:1036140023F000BFA7360700B5390700DD3A0700DD
:1036240063350700633507007337070095390700D2
:10363400B14BB24DB249B34EED1AED082D0445F02D
:10364400040004F075F9A3883380AF4B1B680BB1F9
:1036540001209847AD493088FFF78CFE02460028C8
:103664003FF47DAFAA4945F001000DB0BDE8F0403C
:1036740004F062B9A34B4FF6FF721A80A54B1B6886
:103684005A0704D4FFF7BAFE08B1FDF76DFF9E4B4D
:103694001B68002B3FF463AF02200DB0BDE8F0407F
:1036A4001847E3889C4E0D2B1ED1238A022B1BD175
:1036B400A37C022B18D1904B904D9849ED1AED083C
:1036C4002D0445F0030004F033F9954945F0040056
:1036D40004F02EF98B4B318818884FF6FF72FFF7F0
:1036E40063FE08B1FDF740FFE288B3889A427FF495
:1036F40036AF8C48814D02F0D1FD7F4BED1AED08B9
:103704002D04074638B9884945F002000DB0BDE8DC
:10371400F04004F00DB9F4230093238A8349024650
:1037240045F0040004F01BF9228A04F11201384622
:1037340005F01EFF182200210DEB020005F04AFFE0
:1037440008238DF818307A4B08937A4B0796CDE905
:10375400093706A8238AADF82C3000F0F9FF0028B9
:103764003FF4FDAE6F48394602F0C4FDF7E6E28847
:10377400F62A24D8D31E9B0723D0D11F89B201393E
:103784004B4203F0030301F0030102F1FF3458BF7D
:103794005942641AA4B2584B58486749C01AC00821
:1037A4000004234640F0040004F0CFF8554B2146B2
:1037B4001888FFF7FFFD00283FF4D1AE88E0F72416
:1037C400E9E71446E7E74C4B4C485C49C01AC0088B
:1037D400000440F0040004F0ABF80022A08806A91D
:1037E400CDE90622FFF7D6FD00283FF4B8AEFDF779
:1037F400BBFEB4E6404B414862895149C01AC00837
:10380400E389000440F004000DB0BDE8F04004F08A
:103814009CB8394B394C4B493A4DE41AE40824041A
:1038240044F00404204604F083F802230693288815
:1038340004AB06AA42F605210793FFF7B1FD08B1D0
:10384400FDF792FEBDF810203F49204604F074F8BD
:10385400002328881A468521FFF796FDC4E7264BE6
:10386400264D3A49ED1AED082D0445F00405284685
:1038740004F05EF862893649284604F05DF822892E
:103884003449284604F058F8A2893349284604F0FC
:1038940053F8E28931492846E7E6174B174D30497A
:1038A400ED1AED082D0445F0040004F041F8154B21
:1038B40004F108011888FFF75DFD044600283FF471
:1038C4004EAE0246274945F0010004F035F8204683
:1038D4000DB0BDE8F040FDF747BE074B074822494D
:1038E400C01AC008237A00930004637AA27A40F0D5
:1038F400040004F034F832E64C960700649607009E
:1039040047A40700AA590020986E0020D6A90700F2
:1039140051A40700B46E0020A06E00207FA407000D
:10392400B1A40700BC960700D4A40700F3A40700C1
:10393400213C0700C933070013A5070059A5070058
:103944008AA50700C8A50700F0A5070013A607006D
:103954003AA6070050A6070066A6070078A6070047
:103964008DA60700BCA60700F1A60700634B6448B8
:103974006449C01AC008000440F0040003F0D8FFF2
:103984000023A088ADF8183006A9FFF701FD2BE746
:10399400A379002B7FF4E3AD5B4B13211888FFF769
:1039A400EBFC08E7584B00211888FFF707FD02E7F6
:1039B400A379002B3FF4D3AD022B7FF4D0AD534D4C
:1039C4002189AA8991427FF4CAADA27B012A7FF49E
:1039D400C6AD4FF480320792228A4B4EADF82020B8
:1039E400628AADF8222004F11402099203AF298AF5
:1039F4003088069304AA04930597FFF7D1FC60B9B5
:103A04003846FEF733FC40B940F2FD133088ADF878
:103A14001C3006A9FFF7CAFCA1E5002306A93088DB
:103A2400ADF81C30FFF7C2FC014600287FF497ADC7
:103A340018220DEB020005F0CDFD237D344A8DF8EC
:103A44001830022B0795089224D0062B10D0012B96
:103A540010D1304B1A88304B1A80637DD4F816206D
:103A64000A93012B0B9205D12C4801F00DF901E0CA
:103A7400637D0A9306A800F06BFE024600283FF41B
:103A84006EAD1E491E4B5B1ADB081B04244943F030
:103A94000100EAE5194B1A482249C01AC00800047B
:103AA40040F0040003F044FF1A4AB4F815301380C0
:103AB400194A1380DEE7114B11481B49C01AC0088C
:103AC400000440F0040003F033FF0023A0881A46EA
:103AD4001946FFF75BFC6EE60023A0881A461946D8
:103AE400FFF766FC08B1FDF73FFD0548034B0F499E
:103AF400C01AC008000440F0040007E64C96070012
:103B0400649607002BA70700AA590020A06E002086
:103B1400213C07009E6E00209C6E00203896070012
:103B240066A7070054A707009AA70700C0A70700C5
:103B340070B5204E346814F0010432D01E4B984204
:103B440036D01E4B1E4D1F4C1F49ED1AED082D0497
:103B540045F00405284603F0EBFE22884FF6FF7378
:103B64009A4220D01949284603F0E2FE336820889F
:103B740043F0040313213360FFF7FEFB044680B9CE
:103B8400134EC82446F001064FF47A40B047013C76
:103B9400FAD105F0F3F9044618B90E49284603F0A2
:103BA400C7FE204670BD0C4B1878FFF7E1FBF0E729
:103BB4000024F6E7B46E0020389607004C96070000
:103BC40064960700AA590020E2A70700FFA7070090
:103BD400D0A907000EA80700A85900207FB500232C
:103BE400CDF80B308DF80F300A4BADF806109B89D9
:103BF400ADF8083001238DF80A300DF10603CDE944
:103C04000430054B02A91888FFF7CCFB07B05DF818
:103C140004FB00BFA06E0020AA590020F0B50D4699
:103C240087B0044620B949494FF4D87002F0E2F94C
:103C340025B9464940F2B11002F0DCF900210D2209
:103C440002A8019105F0C6FC2378082B0BD1404A49
:103C5400404913880988013B9BB2138031B32BBBC5
:103C6400032311802370637822788DF80520602166
:103C7400012B8DF804108DF8063019D036493748D9
:103C8400401AC0080004364940F0020003F05DFE0B
:103C940063780B2B12D100F081FA8DF80700002015
:103CA40000F076FA042101A8FFF798FF07B0F0BDF1
:103CB400062A05D0082A29D0032A27D00321F2E7AF
:103CC400E1688DF80710D4E90123080A8DF808008B
:103CD400080C090E8DF80A10110A8DF80B208DF8C6
:103CE4000C10110C120E8DF80E201A0A8DF80F30DC
:103CF4008DF810201A0C1B0E8DF80D108DF809008C
:103D04008DF811208DF812300F21CCE7D4E901236E
:103D1400C3F30741D7B2C2F30726C2F30745DCB2A7
:103D2400C3F30720120E1B0E8DF80D108DF80770CB
:103D34008DF808608DF809508DF80A208DF80B4035
:103D44008DF80C008DF80E300B21ACE727A8070086
:103D54009C6E00209E6E00204C960700649607001F
:103D6400A2A807002DE9F041054694B020B93E49C8
:103D740040F2874002F03EF93C4B4FF6FF721A8046
:103D840001204FF659632A4602A98DF80A00ADF8BE
:103D94000830FFF701FB0446002861D1344B04AA24
:103DA40003F11007164618685968144603C408330B
:103DB400BB422246F7D1A91C3046FFF7FDFA044660
:103DC40000284DD101461C220DA805F003FC9DF8E6
:103DD40034300C9443F004038DF834300223ADF8EE
:103DE4000C30AB788DF80E3003238DF80630F423B5
:103DF400CDE90A44ADF82C302B464FF4885833F8FB
:103E0400040BADF8048003AF01AE08AA0DA908970E
:103E14000996FFF7C3FA044610BB01461C220DA8FD
:103E240005F0D8FB18238DF834300123ADF80C309D
:103E3400AB788DF80E3013238DF806301723CDE9B7
:103E44000A44ADF82C302B4608AA33F80C0B0C941A
:103E54000DA9CDE90876ADF80480FFF79FFA044672
:103E6400204614B0BDE8F08127A80700AA59002015
:103E7400FCA90700F7B5434D2B6813F0010607466C
:103E840070D1414B414C4249E41AE408240444F003
:103E94000404204603F04CFD3E4B3F481F6002F0F3
:103EA400BFF9019600F095F900285CD120463B4A01
:103EB4003B4903F041FD3948FFF782FA002852D10B
:103EC4003849204603F034FD05F01AF800284AD199
:103ED40001A805F0E5F8002845D13349204603F050
:103EE40027FD01A9012005F0E5F800283BD1204673
:103EF4002E4903F01DFD01A805F09EF9002832D1DA
:103F040000F050FE002830D0294800F03BFE2B681A
:103F140043F002032B6011238DF804302B689B07B8
:103F240028D5234E2349B369321D204603F00DFDE5
:103F3400B269311D92B201A8FFF722FA98B91E485E
:103F4400FFF71CFA78B91D48FFF70CFF58B9FFF7C3
:103F540055FA40B92B681A4943F0010320462B60F7
:103F640003F0E6FC002003B0F0BD1649204603F040
:103F7400DFFCD0E71449204603F0DAFC134907229A
:103F8400D8E700BFB46E00204C9607006496070083
:103F9400D1A80700986E0020BC9607000010070007
:103FA400F0A8070010A9070025A907003CA90700ED
:103FB400B86E00206EA90700D6A90700A06E0020E5
:103FC400AEA9070054A907008FA90700C9A80700D4
:103FD40030B51A490B6885B004460BB1013B0B6040
:103FE4001748184A63682578121AD208120442F056
:103FF40004008BB90B68144A14490093012D18BFAF
:104004000A46A368124903F0AAFC63699BB1E068FD
:1040140005B0BDE8304018470A680292226901924F
:10402400A2680A490092084A012D18BF0A460949A4
:1040340003F0AFFCE9E705B030BD00BFD46E00204B
:104044004C9607006C9607000CAA070012AA0700FA
:1040540018AA07003EAA070008B50C490C4B5B1AC6
:10406400DB0802461B0443F004004AB1094903F08B
:104074005FFC09490948BDE80840002202F0A2BBE0
:10408400074903F055FC0749F4E700BF4C960700C5
:104094006C9607007AAA070044C1070068590020FB
:1040A400A0AA070018C107002DE9F7439846174C4A
:1040B400174BDFF86C90E41AE408D9F800302404B4
:1040C400CDE9002305460B460E4617461149024624
:1040D40044F0040003F04FFC29460F48CDF800805B
:1040E4003B46324602F086FB054640B9D9F800301B
:1040F4000133C9F80030284603B0BDE8F083024616
:10410400064944F0020003F017FCF4E76C9607003C
:104114004C960700C8AA0700685900200BAB07009B
:10412400D46E00202DE9F341134B144C144FE41AC0
:10413400E4083B680093240405460B460E4690466B
:104144001049024644F0040003F009FC29460E48D5
:104154004346324602F09EFB054630B93B680133C4
:104164003B60284602B0BDE8F0810246074944F0AE
:10417400020003F0E1FBF4E74C9607006C9607009D
:10418400D46E002038AB07006859002075AB0700D7
:10419400014B18700B207047D86E0020024B002290
:1041A40018781A70704700BFD86E002018DF704767
:1041B40030B585B0054610220C466846002105F04E
:1041C40009FAA408684601950294FFF7EFFF05B0C9
:1041D40030BD1FB50023CDE90133039368460223A4
:1041E4000093FFF7E3FF05B05DF804FB4FF00053C5
:1041F4004FF480521A60002070470000084B0948B1
:104204000949C01A10B5C008000440F0040003F0C6
:104214008FFB064BBDE810401B680620184700BF03
:104224004C96070074960700B0AB0700DC6E0020C4
:104234000A2803D90B38C0B2FFF7AABF70470000A1
:1042440070B5054686B0002002F060FB0146A0B1BF
:10425400274A1821284601F0C9FD024600283CD00F
:104264002449254B5B1ADB081B04244943F0010055
:1042740006B0BDE8704003F05FBB1822684605F045
:10428400A9F904231C4C8DF800301A4B1C4EE41A77
:104294001C4B1A6D3368E40824049A4244F0040465
:1042A4001DD11949204603F043FB184B31681868A7
:1042B40001F068FC8DF80100FFF7BAFFD5E901139E
:1042C4008DF8010068469847114800F0FFFB9DF8FF
:1042D40001201049204603F02FFB06B070BD0123D6
:1042E4008DF801306846D5E901139847EFE700BF20
:1042F400454207004C96070074960700E4AB07009C
:10430400E06E0020E87500200DAC0700E46E00208C
:10431400014207003CAC07002DE9F041836888B0F6
:10432400044623B9A44940F2CF2001F063FE1622CB
:1043340000210DF10A0005F04DF9A04EA0492278A4
:104344008DF80820761AF608012336040C2A8DF815
:10435400093046F0040500F2DB81934013F4AD7F8D
:1043640024D10C2A07D0022A40F0D281954928464C
:1043740003F0DEFA07E02846934903F0D9FA934B99
:1043840007201B6898479DF809209149284603F0A7
:10439400D3FAD4E9011302A898479DF80930012BF8
:1043A40000F0AF81894B05201B68A9E1062A894FDB
:1043B40010D0012A24D1237C3B70012B45D0022B41
:1043C40000F0AA80844946F0010003F0B1FA00230A
:1043D4003B70EFE0237C3B70012B00F08F80022BBD
:1043E400F0D17E49284603F0A3FA7D4B4FF4805167
:1043F4009A6C1B6D0591009104927A49039316E11E
:104404003B78012B18D0022BDCD1013A072A00F2A9
:104414007B8101A353F822F01D4507000D470700D7
:10442400AF460700CD4607000D470700E7430700E6
:104434000D4707003B460700013A072A66D8DFE824
:1044440002F004651444655D651E6749284603F05F
:104454006FFA5E4B03201B689847606901F070F89F
:10446400FFF7E6FE8DF809008DE76049284603F062
:104474005FFA5B4BDA6B1B6C0392049383E723694B
:1044840023B94D4940F2131001F0B4FDA38A23B9B6
:1044940049494FF48A7001F0ADFD5549284603F0AF
:1044A40047FAA18A206901F063F8FFF7C1FE4C4B7B
:1044B4008DF80900DA6B1B6C0493E3680392002BFC
:1044C4003FF461AF206998475DE74A49284603F005
:1044D4002FFA4949494801F0C9F8FFF7A9FE012814
:1044E4008DF809007FF44FAF002000F0EFFA08B90F
:1044F40043493CE70A238DF8093044E741492846FB
:1045040003F016FA4FF400730593B2E72A494FF407
:10451400BC7001F06FFD36E73B49284603F008FA0A
:1045240001F056F830B9394946F0010003F000FAB9
:104534000823E0E7626932B9354946F0010003F027
:10454400F7F90323D7E7C2F30B0343B1244B2A49FA
:104554005B6D096813448B4201D02E49EDE7B2F537
:10456400805F06D92C4946F0010003F0E1F90423E9
:10457400C1E71B4F20497B6D0968D018884206D9D2
:10458400009146F00100254903F0E9F9D0E77A6487
:10459400FA6CBA64194A3B6510683B630022012136
:1045A4001844FFF7BFFD00283CD01D4946F0010028
:1045B40003F0BEF905239EE764AC07007496070078
:1045C4004C960700E3AC070007AD0700DC6E002043
:1045D4003CAC0700AC5900209FB007004DB0070069
:1045E400E875002074B007001FAD070049AD07004F
:1045F4006DAD070096AD0700E06E0020E46E00206C
:10460400C1AD0700E6AD070010AE070037AE0700E6
:104614006CAE070085AE0700A6AE0700CAAE070061
:104624003BAF0700BB6C00933B6D7A6C3C4928465A
:1046340003F095F9A7E63B49284603F079F900F021
:10464400C7FF00283FF474AF374FA18AD7E914326B
:104654009B1A7A6C0B44934201D934496DE7344A6E
:104664003B6B1268206903EB020807F1480201F072
:10467400A5FCE368064623B92E494FF4F87001F00F
:10468400B9FCE368A28A21694046FFF70DFD08B131
:10469400E36817E7A38A3A6BBE641A443A633A6D37
:1046A400049613443B6503936DE61F4E2249284646
:1046B40003F03EF9B36C326D2049284603F045F906
:1046C400B36C0493336DEEE728461D4903F030F9CB
:1046D4001548D0E91473426CFB1A934205D019496A
:1046E40046F0010003F031F922E7836CC364002132
:1046F400416447652046FFF7A3FD134B1B68042064
:10470400984708B0BDE8F0810A4940F2972000E7D5
:104714000E4946F0030003F00FF90223EBE600BF55
:1047240052AF07008DAF0700E8750020B3AF070054
:10473400E46E002064AC0700CAAF0700EBAF0700CB
:1047440001B0070029B00700DC6E0020BFB00700ED
:10475400836810B58BB10A4A182101F047FB04465F
:1047640048B1084B084A09499B1ADB081B0443F06B
:10477400020003F0DDF8204610BD0724FBE700BF6C
:104784001D430700749607004C960700DEB007002F
:1047940038B50546C0B10120FFF75EFC044648B9B0
:1047A40000F0C0FE00F014FF30B9084B00201D607B
:1047B400FFF7EEFC204638BD0549064800F056FFD9
:1047C4000128F2D00324F5E70724F3E7DC6E002088
:1047D400E06E0020E46E00200368013310B5044647
:1047E40009D000225821043001F0E8FB23681B1A89
:1047F4005842584110BD0020FCE700002DE9F04765
:1048040016464FF460721F461F4C0546884604F056
:104814005DFE1E4BE41AE408240444F0040A8146B5
:1048240050B91B49504603F083F816B90020BDE87F
:10483400F0874846B047F9E71649504603F078F840
:1048440015492A46504603F077F8002201212846EC
:10485400FFF768FC30B1114944F0010003F068F837
:104864000320E4E74FF460724146384604F080FECA
:1048740033464FF4607239462846FFF715FC00288A
:10488400D4D00749E8E700BF7C9607004C960700A0
:104894000EB1070058B107006CB107008CB10700D6
:1048A400AFB107002DE9F0474C48DFF860814C4C6C
:1048B4004C4D4D4EFFF790FFD8F800A007465046E8
:1048C400FFF78AFF814668B1DAF80430012B60D023
:1048D4000022C3210AF5187001F070FBDAF85C328B
:1048E400834256D0002F64D04FF00009671BFF08A5
:1048F4003F0447F004073D49384603F019F83749A7
:1049040039484FF4607204F033FEB9F1000F11D04E
:104914003846374903F00CF8D8F80070354854226B
:10492400391D04F025FE34484FF4327207F15C015E
:1049340004F01EFE7768012F4DD1601BC0082F4C78
:104944002F49000440F00300A4F5E47502F0F0FFE1
:104954000FCD0FC40FCD0FC40FCD0FC495E80F00BA
:1049640084E80F0004F11005A4F5DC740FCC0FC526
:1049740094E80700002386F8603286F8E232F3698F
:10498400C6F8A232022385E8070086F8A172736094
:1049940021E0002FAAD1601BC0080004194940F08F
:1049A400030002F0C5FFD8F800100F484FF46072FE
:1049B400BEE7601BC0080004134940F0020002F087
:1049C400B7FF09484FF46072002104F003FE02238C
:1049D40073600123F360BDE8F08700BF00F00700B7
:1049E4007C9607004C960700E8750020D6B10700B6
:1049F400EBB10700EC750020447600200C79002010
:104A0400D2B2070015B207006EB20700B0590020F9
:104A140070B50D4C054600225821204601F0CEFA0F
:104A2400002244F8040CC32104F5177001F0C6FAFF
:104A3400261FC4F858022A463146044B0448BDE8F0
:104A44007040FFF7DBBE00BFEC75002068720020E9
:104A540000F00700F8B5134B134C144FE41AE408A4
:104A640024040D463A681249064644F0030002F055
:104A740063FF2846FFF7B0FE20B90E4940F28510C7
:104A840001F0B8FA32460C4B38682946FFF7B6FEF7
:104A9400024630B144F001000849BDE8F84002F094
:104AA4004BBFF8BD4C9607007C960700B059002018
:104AB400FEB2070028B30700E86E0020A4B3070085
:104AC4000149FFF7C7BF00BF00F0070038B505462E
:104AD4000020FFF79DFF044618B903492846FFF755
:104AE400B9FF204638BD00BFE875002038B5114B2A
:104AF400114C1249E41AE4082404054644F0040065
:104B040002F016FF2846FFF7A7FA054638B10C490C
:104B1400024644F0010002F00FFF032038BDFFF706
:104B2400C1FE2846FFF7D2FF0028F7D00549024608
:104B3400EFE700BF4C9607007C960700E1B307003F
:104B440004B407002FB4070029DF704738B50C4DB3
:104B54000446D5F8643378B101330FD1002218210B
:104B6400043001F02BFA21462060072205F5597024
:104B7400BDE83840FFF7E8BF0E2038BD0820FCE749
:104B840000F0070050B1064B03F11C0253F8041B5C
:104B940040F8041B9342F9D1002070470E2070475F
:104BA40064F3070010B5064C00221821204601F0DA
:104BB40005FA54F8043C1B1A5842584110BD00BF72
:104BC40068F3070010B50F4CD4F82433D4F86423E9
:104BD4001340013313D00C4B0C480D49C01AC008C4
:104BE400000440F0040002F0A3FE4FF4FE2001F0A4
:104BF4008BF8C92221464FF4FE2001F0B3F80020BF
:104C040010BD00BFE87500204C960700849607008D
:104C14007AB407002DE9F843154B164CDFF864808D
:104C2400154E1649E41AE408A6EB08062404F6080F
:104C340044F0040407463246204602F07DFE4FF05D
:104C44000009B14501D100250BE058F83930384648
:104C54009847054640B1034609494A46204602F0B2
:104C640074FE2846BDE8F88309F10109E9E700BFAD
:104C74004C9607004C96070040960700B7B407000F
:104C8400DBB40700389607002DE9F843154B164CA2
:104C9400164D174E1749E41AE408761B2404F60847
:104CA40044F0040407463246204602F045FE4FF025
:104CB400000805F10409B04501D100250BE059F8BD
:104CC400383038469847054640B103460A494246BB
:104CD400204602F03AFE2846BDE8F88308F10108B0
:104CE400E9E700BF4C9607004C960700389607008A
:104CF4004096070007B507002CB50700034A0023B8
:104D04000360436083601363704700BFE87500204D
:104D14004FF44053074A5968914201BF986800F61E
:104D2400FF7020F47F6020F00F0018BF4FF4805014
:104D3400704700BFDBE5B15108B5FFF7E9FF054B4C
:104D44009B69184400F6FF7020F47F6020F00F0088
:104D540008BD00BFE87500204FF480507047000084
:104D64002DE9F04F87B0074601920493684A694BD6
:104D740003919B1ADB081B0443F004046649029365
:104D8400204602F0D5FD6549DFF8D491DFF8DC81D7
:104D9400DFF8DCA13A46204602F0CEFD039B6049D1
:104DA400002B0CBF4A464246204602F0C5FD019B3B
:104DB4005C49002B0CBF4A464246204602F0BCFD2B
:104DC400049B5949002B0CBF4A464246204602F038
:104DD400B3FD4FF4405355495A68554B20469A4207
:104DE40014BF4A46424602F0A7FD5249204602F04B
:104DF4009FFDDAF81830DAF820204F49204602F0F7
:104E0400A4FDDAF82430DAF82C204C49204602F0CC
:104E14009CFD0025012D4ED0022D5BD0FFF78CFFA9
:104E2400019B0646002B44D0DAF820305A1E534228
:104E340053410093424B9E4203D94249B12001F0B1
:104E4400D9F83F4B4049A3EB060B039B2A46BB45CD
:104E540038BF01232046059302F06EFD3B493246DC
:104E6400204602F069FD3A49BB452CBF4A464246FA
:104E7400204602F061FD009B3649002B0CBF4A46D8
:104E84004246204602F058FD059B43B33249424650
:104E9400204602F051FD009B3BB3BB4532D2029B3E
:104EA4002E4943F0020002F043FD042007B0BDE8A0
:104EB400F08F019BBDE7FFF72BFF049B06463BB930
:104EC4004FF440531A4A5B689B1A18BF0123B0E79A
:104ED4002B46AEE7012300934FF48056AAE7204AFD
:104EE4001D49204602F028FDD7E70135032D91D155
:104EF400BB45D4D320461B4902F01AFD1A48FFF7DC
:104F0400FDFE02E0EDB2002DF4D10020CEE700BF9B
:104F14004C9607004C96070056B5070074B5070079
:104F240094B50700A5B50700B3B50700C8B50700D9
:104F3400DBE5B151D8B50700E7B5070007B60700B0
:104F44000010070027B60700A0B60700AAB607009E
:104F5400BFB60700D4B60700E7B60700F8B60700E7
:104F64008EB5070024B707000076002089B5070036
:104F7400E875002010B5084C4FF40072FF2120465C
:104F840004F028FB20220021A4F1240004F022FBD9
:104F9400002344F82C3C10BD447600202DE9FF4743
:104FA4003A493B4D8A6B3B4C3B4FDFF81491DFF899
:104FB40014A16E465C313046FCF710FD96E80F00F4
:104FC40085E80F000021354B39704FF447722046B5
:104FD400C9F80010CAF80010EB6004F0FBFA30497D
:104FE40022462846FCF794FF70B92E482E4B2F49D1
:104FF400C01AC008000440F0010002F099FC002728
:10500400384604B0BDE8F0873F783FB194F86C317E
:1050140094F800806BB3B8F1000F06D02148224BFE
:105024002349C01AC0080004E5E794F87231002B44
:10503400E5D0DAF80020D9F800103046FCF7CEFCB1
:1050440096E80F0085E80F004FF4B272414604F56C
:10505400BA7004F0BFFA174904F5BA722846FCF78F
:1050640057FF80B90F48104B1349C01AC0080004F9
:10507400C1E7B8F1000FC2D0A379002BBFD0083428
:105084000E4B1C60BCE704F5BA74F9E7E875002020
:10509400387A0020507A002068790020695107008E
:1050A40038A207008C9607004C96070036B7070015
:1050B40063B70700D8A2070082B70700347A00203C
:1050C4004C7A0020487A002010B590F8552012F050
:1050D400FB0F08D190F864306BB1846E5CB10C6046
:1050E4000124204610BD02F00203D20705D413B1F7
:1050F40090F85C30A3B90F241FE090F85620002AE2
:10510400F5D0846D002BE9D090F85C30002BE5D00D
:105114000F4B026EC3F5FC239A4203D81444DDE717
:105124000024F5E70B490C48401AC00800040B4959
:1051340040F0010002F009FC0424064B064808492B
:10514400C01AC008000440F0010002F0F1FBC8E7F7
:10515400001007004C9607008C960700BEB70700A6
:10516400DBB707005B68DA68134B9A4230B40AD1A4
:10517400D0E901241148036813B911490B6823B11C
:10518400104B00221A7030BC7047134613F9015BB0
:10519400002DFBDB2244D21A03600A4B0A60012172
:1051A40019700948094B0A49C01AC008000430BCE8
:1051B40040F0040002F0C0BBD8A207004C7A0020E3
:1051C400487A0020687900208C9607004C960700E6
:1051D4000CB8070000B591B0FDF7D0FF18B10D4928
:1051E400DB2000F007FF0C4920226846FEF716F882
:1051F4000A490B4840236A46FDF718FF18B10549D0
:10520400E52000F0F7FE074B01221A7011B05DF89B
:1052140004FB00BF29B8070088980700EC79002038
:105224002CA20700697900202DE9F047A2B081463D
:105234000E461746984678222023002104A802939C
:10524400DDF8A8A004F0C6F900230393424B1B78B1
:105254000BB9FFF7BFFF414C414B4249E41AE40844
:10526400240444F00305284602F062FB46B944F0E6
:1052740002003D4902F05CFB132022B0BDE8F08738
:10528400B9F1000F05D02846384902F051FB162029
:10529400F3E737495246284602F04EFB02AB01932E
:1052A400344B009334495346424604A8FDF74CFF5F
:1052B40000284ED1402F4CD1304B314606F14002EC
:1052C4001F4651F8040B43F8040B9142F9D12C49C1
:1052D400284602F02DFB402628482021FDF7ABFF8D
:1052E400244A029B2749CDE9007603A8FDF7BAFEBC
:1052F400024640B344F00100234944F0040402F0A0
:105304001BFB2249204602F013FB32461B49204670
:1053140002F050FB1E49204602F00AFBBDF80820AB
:105324001449204602F046FB1A49204602F000FBCD
:1053340019493246204602F03DFB02F089F9002863
:10534400FBD1052099E72846144902F0F1FA01201F
:1053540093E70A2091E700BF697900208C96070043
:105364004C960700A7B80700CFB80700E3B80700BA
:10537400FAB807008A79002014A20700AA7900204D
:1053840015B90700EC79002026B9070048B90700D1
:1053940053B9070059B907008898070065B9070091
:1053A4004FF4405313B55A681C4900F500508A4223
:1053B400446805D0631A5C425C41204602B010BDCB
:1053C400944228D11A78142A82BF5B69144AB3FB29
:1053D400F2F3027898BF0023142A84BF426910496B
:1053E400104888BFB2FBF1F20F49A0EB010098BF4F
:1053F40000220E490092C00893424FEA00400C4A32
:1054040040F0030018BF0A460A4914BF01240024CF
:1054140002F0A5FAD1E70024CFE700BFDBE5B151E4
:1054240040420F008C9607004C96070074B90700A1
:105434007AB9070080B907002DE9F043ABB00646FE
:105444000F4690461C467822202300210CA8039383
:1054540004F0C0F8294B1B780BB9FFF7BBFE2CB145
:105464003146202204A8FDF7BDFE04AE244B254C92
:105474002549DFF8AC90E41AE408240444F0040558
:1054840043463A46284602F060FA03AB01933A4693
:105494001E49CDF8009043460CA8FDF755FE024680
:1054A40040B11B4944F0010002F046FA00202BB041
:1054B400BDE8F08320223146484604F007F8D8B10D
:1054C400144944F0020002F033FA1349284602F06A
:1054D4002FFA20223146284602F06CFA0F4928465A
:1054E40002F026FA20224946284602F063FA02F026
:1054F400AFF80028FBD1D9E70120D8E7697900206B
:105504004C9607008C960700C0B9070014A2070048
:10551400F3B9070024BA07003EBA070050BA0700DF
:105524006A79002008B5044B986B08B1FFF736FD83
:10553400024B187008BD00BFE87500206C7D002088
:1055440010B5044658B1B0F5007F0AD8064B0022C6
:105554001A70FFF70FFD054B01209C6310BD03205B
:10556400FCE70420FAE700BF6C7D0020E87500200A
:1055740070B5134C0646E06BA36B42189A420D4675
:105584000BD9104B10481149C01AC008000440F050
:10559400010002F0CDF9032070BD5C300A462044BE
:1055A400314603F0E5FFE36B04F140022B44294646
:1055B4003046E36300F002FD20640120ECE700BF05
:1055C400E87500204C9607008C96070060BA070027
:1055D400014B1878704700BF6C7D0020F7B51C4C58
:1055E40094F86C217AB394F8D802B4F8DA2204F56A
:1055F400377104F5B874174E174D336800932B6850
:10560400FFF712FE0128074605D1201D00F0BEFA5F
:105614000128074614D0114B114C1249E41AE4082E
:10562400240444F0020044F0040402F081F90E4919
:10563400204602F07DF932882968204602F0BAF942
:10564400384603B0F0BD114610460434D3E700BF1A
:10565400507A0020487A00204C7A00204C960700AB
:105664008C96070083BA070099BA0700334BD3E935
:105674000E329A422DE9F04106460D460DD0304BCC
:1056840030483149C01AC008000440F0010002F05B
:105694004FF908242046BDE8F0812C4F97F800808C
:1056A400B8F1000F09D0FFF747FB294B30602946BA
:1056B4001868BDE8F041FFF707BDFFF76FFC80B342
:1056C400FFF78CFF0128C6F800800446C5F8008067
:1056D40019D11F4B29461868FFF7F6FC0128044628
:1056E40011D1034642462868164D4146FFF738FB60
:1056F400134BED1AED082D0440B1164945F0010095
:1057040002F016F90424FFF735FCC3E7FFF714FB96
:1057140011493060024645F0040002F00DF93C7076
:10572400B8E7074B07480D49C01AC008000440F009
:10573400010002F0FDF80524ACE700BFE875002085
:105744004C9607008C960700A7BA07006C7D0020D2
:10575400347A0020C2BA0700DDBA0700F9BA07009C
:1057640070B50D461646044620B907494FF42E700D
:1057740000F040FC3246294604F172000123BDE8E2
:105784007040FFF759BE00BF29B8070013B504469F
:10579400084623781146032B2ED8DFE803F00902CC
:1057A40019220022D4F8014000F008FC844202D1FE
:1057B400012002B010BD1348134B1449C01AC0088D
:1057C4000004002240F0040002F0B6F80020F0E7E4
:1057D4000A4600230146601C02B0BDE81040FFF7F2
:1057E4002BBE034600914022611C0020FFF71CFDE4
:1057F400431E58425841DCE7054940F2E13000F0CD
:10580400F9FBE3E78C9607004C96070016BB0700EC
:1058140029B807002DE9F041A2B004460D4616460A
:10582400002178221F4604A8202303939DF8A0801A
:1058340003F0D0FE41220021204603F0CBFEB5F850
:1058440094300BB195F8968084F80080B8F1030F7A
:1058540035D8DFE808F009020F2C0022394630461B
:1058640000F0ACFBC4F801003A4631462046FFF78D
:105874008DFF19E003AB0193631C009315493B466C
:10588400324604A8FDF760FC0028EDD001F098FB37
:105894001149124B5B1ADB081B041149024643F001
:1058A400010002F049F8002022B0BDE8F081B5F80B
:1058B400982005F19A01601C03F05AFED4E70748CA
:1058C400054B0849C01AC0080004424640F00100D4
:1058D400E7E700BF14A207004C9607008C96070068
:1058E40039BB07006ABB07002DE9F047964B1E68D9
:1058F400A4B00446884615460A4601463046FFF7DA
:105904002FFF002800F0138196F85570002F36D130
:105914004FF00109CDF8009043462246314613A8C2
:10592400FFF778FF20B9002D40F00681052500E13E
:10593400002D00F09580854D412213A905F2A12088
:1059440003F016FE824B83488349C5F82C90C01A95
:10595400C008000440F0040001F0EAFF73682F62FD
:10596400AB6000224146204600F028FB774BC3E998
:1059740009800125FFF7FEFA744B9C6473E0412211
:10598400002102A803F026FE07F0010A41220021AB
:1059940013A807F0020703F01DFEBAF1000F56D05A
:1059A40004F500516D4A4868B36D90420AD06948C5
:1059B400674B6B49C01AC008000440F0010001F0B5
:1059C400B7FFB0E703F5FF5203F6FF73C3F30B030E
:1059D4001F32D21A8B68934206D25E485C4B6149EF
:1059E400C01AC0080004E8E74FF440535A688242E2
:1059F40005D118780A78102818D8102A23D82046F8
:105A0400FFF7CEFC002832D0524B514A5649A3EB43
:105A140002094FEAD9094FEA094949F0020001F0A5
:105A240087FF27BB514949F00100C8E7102A1B69C9
:105A34000BD90A699A42E2D04648454B4C49C01AF0
:105A4400C0080004B9E70023F3E70022F2E7002FBF
:105A540045D1484940F2693000F0CCFA002D5CD1C0
:105A64003A4B01255D61284624B0BDE8F087012347
:105A74000093B36D2246314602A8FFF7CBFE0028FF
:105A84003FF451AFB36D6FB3E218A8EB03030021E9
:105A9400009113A83146FFF7BDFE00283FF443AF41
:105AA4009DF84C304BB12B48294B3349C01AC008E0
:105AB400000440F0020001F03BFF002DD0D0BAF109
:105AC400000F11D1214BAA22DA62204F412213A9DF
:105AD40007F2E22003F04CFD7368FB601AE04346D2
:105AE4002246D4E7002DBBD02046FFF759FC10B165
:105AF4002248FFF703F9DFF85490412202A909F57F
:105B0400187003F035FDB36D5FB9A522C9F82C20D8
:105B1400C9F83430002DA3D023E70C4BAA22DA6253
:105B24001FE7AC22C9F82C20C9F83430CDE745B9B9
:105B34001725FFF71FFA96E705251148FFF7DEF84A
:105B440018E71725F9E700BF347A0020E87500202C
:105B54004C9607008C9607008BBB0700DBE5B15120
:105B6400B3BB070004BC0700DABC07001BBD070079
:105B74006DBC070029B807005CBD07000076002053
:105B84000C7600200122FFF7AFBE0000F8B50446F2
:105B940018B94D49C42000F02DFA94F854301BB1C3
:105BA40094F8550003280BD94848494B4949C01A71
:105BB400C008000440F0010001F0BAFE0F200EE01E
:105BC40094F86E30032B0BD0414B40484249C01A25
:105BD400C008000440F0010001F0AAFE1420F8BD42
:105BE400237A33B939483A4B3C49C01AC0080004F7
:105BF400E0E7E368022B0BD0354B34483849C01A30
:105C0400C008000440F0020001F092FE1120E6E713
:105C14004FF44055334A6968238A914243D143B1D2
:105C24006269FAB1DBB204F110010022D6B2B342C8
:105C34000BD8274B25482C49C01AC008000440F053
:105C4400020001F075FE1220C9E7AE8951F8047F05
:105C5400B74202F10102E9D1237863B301286368F2
:105C640006D91AE0A0B9012BE3D123782BB36368DA
:105C74001E4A92689A4214D9154B14481C49C01AFA
:105C8400C008000440F0020001F052FE1020A6E714
:105C94000128CED0237883B16368144AD2689A422B
:105CA400EAD201209BE713B16369002BC1D12378A9
:105CB400002BD1D1BDE7012891D00448044B0D49F4
:105CC400C01AC008000475E7B3BD07009496070026
:105CD4004C96070035BE07004CBE07005FBE0700A8
:105CE4006EBE0700DBE5B15181BE0700E8750020F8
:105CF40091BE0700A5BE0700024AD2F80034002B6B
:105D0400FBD0704700E001400A4908B50223C1F8FE
:105D14000435BFF36F8FBFF34F8FC1F80805FFF74A
:105D2400EBFF0023C1F80435BFF36F8FBFF34F8F30
:105D340008BD00BF00E0014010B5094C0123C4F8C0
:105D44000435BFF36F8FBFF34F8F0160FFF7D4FFAC
:105D54000023C4F80435BFF36F8FBFF34F8F10BD1A
:105D640000E0014070B50E4E01231546C6F8043517
:105D7400BFF36F8FBFF34F8F0024AC4207D10023D2
:105D8400C6F80435BFF36F8FBFF34F8F70BD51F862
:105D9400243040F82430FFF7AFFF0134EDE700BFB3
:105DA40000E001404B1C30B5DB00044612F0030058
:105DB4009BB20DD1074D2A601A44074B1A60074B5A
:105DC4001870074B1870074B1C80074B198030BDA7
:105DD4000720FCE7787D0020747D0020727D002080
:105DE400737D0020707D00206E7D00202DE9F74337
:105DF400DFF8AC80B8F800308B4205460C461746F5
:105E040043D300260DF107008DF8076000F088F8F1
:105E14001F4B204ADFF88CC01B78BCF800C01078F8
:105E24006045C1B238BF0131DBB238BFCEB2B34234
:105E34009DF8070005D100F0A1F8042003B0BDE8E7
:105E4400F08316781178CBB28C4586BF0133DBB270
:105E54000023137000F092F80F4BF6B21B6843F85E
:105E6400367003EBC60975B14CB10C4BB8F80000A1
:105E74001B682246294606FB003003F079FBA9F88B
:105E840004400020DAE72C46F9E70920D6E700BFF2
:105E9400737D0020727D0020787D0020747D0020B9
:105EA400707D00206E7D002070B5104C104D22785E
:105EB4002B789A4200D170BD0E480F4A237812689D
:105EC40006880E4802EBC301006852F83320898823
:105ED40003FB060090470A4922780988D3B291420D
:105EE40086BF0133DBB200232370E0E7737D00201B
:105EF400727D0020707D0020787D0020747D00205C
:105F04006E7D0020EFF30583C3F308032BB9EFF391
:105F14001480C04300F00100704701207047000066
:105F240070B50446FFF7EEFF012803D00F49432064
:105F340000F060F8EFF3108672B60D4A9068012302
:105F440080B993600B4B0C4DD3F88010294011603D
:105F5400C3F88050D3F8841051604FF0FF32C3F877
:105F640084200346237006B962B670BDD0BE070014
:105F74007C7D002000E100E0FC06FFBD10B5044676
:105F8400FFF7C0FF012803D00949512000F032F87F
:105F9400084B9A685AB154B9EFF3108172B6064AA5
:105FA40018681060586850609C6001B962B610BDF2
:105FB400D0BE07007C7D002000E100E030B53AB19E
:105FC4001368DB430A4D0144884204D1D84330BDF1
:105FD4004FF0FF33F6E710F8012B5340082213F07B
:105FE400010418BF2C46013A84EA5303F7D1EBE7C6
:105FF4002083B8ED07B5ADF8000001916A46002191
:1060040044F20200FBF79AFA03B05DF804FB10B502
:1060140061B1B2FBF3F403FB1424A4B244B9C0E9A4
:10602400001484608281C381204610BD0E20FCE7E9
:106034000920FAE782B050E8022FC188B2EB324F50
:106044004FF0000317BF92B241EA014142EA014115
:1060540004E04268B2EB324F08BF012340E8021269
:10606400002AE8D18DF807309DF80730002B0CBFCB
:106074001120002002B0704737B550E8013F9DB2AF
:10608400C48925448489A54228BF2D1B0489A542BF
:1060940002BFBFF32F8F002207E0C5EA030540E8E3
:1060A4000154002CE9D14FF001028DF80320019333
:1060B400019A0A609DF8031001F0FF0321B1006802
:1060C40010FA82F003B030BD1846FBE70A884B880B
:1060D4009A4209D150E8012FC2EA024240E8012362
:1060E400002BF7D1012070470020704737B550E8E6
:1060F400023F1FFAA3F5C488A54202BFBFF32F8F46
:1061040000220DE0C48925448489A54228BF2D1BA3
:10611400C3EA054540E80254002CE8D14FF00102DF
:106124008DF803200193019A0A609DF8031001F091
:10613400FF0321B1006800EB124003B030BD1846E4
:10614400FBE70A884B889A4209D150E8022FC2EA39
:10615400224240E80223002BF7D10120704700209F
:10616400704710B5034653E8000F0A4643E800247D
:1061740094F0000FF7D110BD10B5034653E8000F9B
:1061840040EA010243E8002494F0000FF6D110BD68
:1061940010B5034653E8002F42EA010043E8000427
:1061A40094F0000FF6D110BD10B5034653E8000F6C
:1061B40000EA010243E8002494F0000FF6D110BD78
:1061C40010B5034653E8002F02EA010043E8000437
:1061D40094F0000FF6D110BD10B5034653E8002F1C
:1061E40002EB010043E8000494F0000FF6D110BD67
:1061F40010B5034653E8002FA2EB010043E8000466
:1062040094F0000FF6D110BD0121FFF7B5BF0121B5
:10621400FFF7BEBF0021FFF7C7BF0021FFF7D0BFC4
:1062240010B50446002834D003681BB91A49FF206E
:10623400FFF7E0FE636823B917494FF48070FFF756
:10624400D9FEA36823B9144940F20110FFF7D2FE26
:10625400E36823B910494FF48170FFF7CBFE238A1A
:1062640023B90D4940F20310FFF7C4FED4E901231A
:1062740021689B1ADBB20A60013BDBB2FF2B226868
:1062840002D10020107110BD1168481C10600B7001
:10629400F2E70E20F7E700BF4CBF070073B50446D2
:1062A40020B913494FF49270FFF7A4FE00250DF1B5
:1062B40007008DF80750FFF733FE216862680B680A
:1062C40093420ED9A268268A581E0860121A0879C9
:1062D40013F8015CE368D2B2904238BF0A7106FB3E
:1062E40005359DF80700FFF749FE284602B070BD4A
:1062F4004CBF070037B50C46054620B9124940F299
:106304004710FFF777FEB4B100238DF807300DF185
:106314000700FFF705FE2A681368591C1160EA6834
:10632400A41A2A8AB4FBF2F41C709DF80700FFF744
:1063340025FE03B030BD04494FF4A470FFF75AFEA4
:106344008DF80740E3E700BF4CBF070010B50446D3
:1063540018B906493120FFF74DFEA2682AB16369D6
:106364002168206998470023A36010BDBABF0700C5
:106374000EB433B5059D044618B911494220FFF700
:1063840039FE63691BB90E494320FFF733FE2368C6
:106394001BB90B494420FFF72DFE63681BB908495C
:1063A4004520FFF727FE35B106AB01AA2946204652
:1063B400019300F071F802B0BDE8304003B07047BB
:1063C400BABF0700826830B40468551C8560A154C4
:1063D400D0E901329A4202D330BCFFF7B7BF30BCD8
:1063E400704700002DE9F84F9946DDE90A43154648
:1063F400824688460A460127AA420FD24F4538BF33
:106404004F4613F0010B01D164B900240126B9F100
:10641400010F1CD909F1FF396E43F8E70137B2FBCC
:10642400F5F2E9E79B0710D5B9F1000F14BF202658
:106434003026BC42EAD9013C31465046FFF7C2FF40
:10644400002CE2D0BC42F6D1E0E72026F1E7B8FB0D
:10645400F6F39D42E0D9DFF83C90B8FBF6F35046E2
:1064640019F8031006FB1388FFF7ACFF3346AB4261
:10647400B6FBF5F6F1D2BBF1000F00D034B9BDE89C
:10648400F88F20215046013CFFF79CFFBC42F8D80E
:10649400F5E700BF89C007002DE9F74F8846174686
:1064A400064620B99E4940F25220FFF7A3FD7369C6
:1064B40023B99B494FF41570FFF79CFD336823B94A
:1064C400974940F25520FFF795FD736823B9944925
:1064D40040F25620FFF78EFDB8F1000F00F06E81F8
:1064E40018F8011B49B9337B002B00F06781304653
:1064F40003B0BDE8F04FFFF729BF252940F0938092
:10650400002598F800102D29424608F1010806D00C
:10651400302907D02B2908D145F00405F1E745F0CF
:106524000105EEE745F00205EBE72A2943461AD1B7
:106534003B681A1D1C683A60424613782E2B21D101
:1065440001324FF0000A4FF00A0C104610F8011BFC
:10655400A1F1300EBEF1090F16D80CFB0A11A1F1FE
:10656400300A0246F1E7002413F8011CA1F13000BF
:106574000928E2D80A2202FB0411A1F130041A46C8
:106584000133F1E74FF0000A12F8011B01F0FB00A0
:1065940068289046F8D0782909D86F290CD863293F
:1065A4003DD021D825293ED0582900F0B18098F853
:1065B4000030002B94D196E770390829F7D801A24E
:1065C40052F821F093670700B3650700B36507002D
:1065D40029670700B365070003670700B365070071
:1065E400B365070015670700642901D06929DED166
:1065F4003A68D2F800B0111D8BEAEB723960A2EB55
:10660400EB724FF001090A21092A10DCD14538BF89
:10661400D1468CB90024BBF1000F25DA4BE03B686E
:106624001A1D19783A603046FFF7CCFEBFE709F12E
:106634000109B2FBF1F2E7E7BBF1000F05F002023A
:1066440025DB680750D452B9E90740F1B38005F05F
:106654000302022A3FD1BAF1000F3CD10CE0BAF197
:10666400000F05D0EA0717D569072AD52B2125E0A5
:1066740005F00302022A2ED1A1452CD2013C30217F
:106684003046FFF79FFE2CB3A145F7D123E0013C30
:1066940072B9EB070FD474B14C45BCD9013C20212D
:1066A4003046FFF78FFE002CB4D0A145F6D1B2E7F7
:1066B400BAF1000FEDD1CBF1000B2D213046FFF7DD
:1066C40081FE05F00302022A05D1BAF1000F02D1BE
:1066D400002CD1D10024CDE9004553460A22594665
:1066E4003046FFF77FFE62E7013C22B9E807BBD4DE
:1066F400002CD1D1B8E7BAF1000FB5D0F6E739686C
:106704000A1D3A60CDE9004553460A220968E7E7C5
:1067140039680A1D3A605346CDE900451022F5E771
:106724001EC007003B681A1D3A6015F00105D3F836
:10673400009024D1B9F1000F03D0484602F0E9FEDD
:106744000546AC421DD809F1FF3919F8011F00298B
:106754003FF42DAF3046FFF735FEF6E730460135FE
:10676400FFF730FE19F805100029F7D1A542BFF450
:106774001EAF20213046013CFFF724FEF6E700253A
:10678400F0E720213046013CFFF71CFED9E73B68C7
:106794001A1D3A60302130461C68FFF713FE782139
:1067A4003046FFF70FFE00220823CDE900322146D0
:1067B400102295E74C453FF671AF55E703B0BDE8AD
:1067C400F08F00BF70B50D461646044618B9084947
:1067D4005520FFF70FFC1DB905495620FFF70AFCA9
:1067E4002B68256031462046BDE87040184700BF3D
:1067F40099C007002DE9F041DDF818800E461746D0
:106804001D46044618B922498820FFF7F3FB1FB937
:106814001F498920FFF7EEFB23681BB91C498A2016
:10682400FFF7E8FB45BB1A498B20FFF7E3FBB207F0
:1068340003D017499120FFF7DDFBBB0703D01449B0
:106844009220FFF7D7FBE3689E4204D322696B1EB4
:106854003344934203D90E499320FFF7CBFB2368BB
:10686400CDF81880D3F80CE03A462B463146204642
:10687400F446BDE8F041604763685A68B5FBF2F33B
:1068840002FB1353002BD2D001498E20CDE700BF69
:1068940099C007002DE9F0410D4616461F460446EF
:1068A40018B919499E20FFF7A5FB23681BB916499F
:1068B4009F20FFF79FFB1EB91349A020FFF79AFB07
:1068C40063681B68013B2B4203D00F49A320FFF7E9
:1068D40091FB63681A68E3689D4205D36B1E02FB53
:1068E40006332269934203D90749A520FFF782FBA7
:1068F4002368D3F810E032463B4629462046F44646
:10690400BDE8F041604700BF99C0070070B550B9B9
:106914000E4D0F4C0026641B1423B4FBF3F4B44255
:1069240008D1002010E00368002BF1D0BDE87040CE
:10693400DB6918472B6813B901361435EFE7DB69B7
:10694400284698470028F7D070BD00BF685900203A
:106954007C590020014B43600020704738C1070078
:106964000846704700207047024B1868003818BF6B
:1069740001207047887D002008B50248FFF74DFCD0
:10698400002008BD887D002008B510461A4602F094
:10699400EFFD002008BD00002DE9F041804686B0DF
:1069A40011480F4616461D46FFF72EFC0446C8B98B
:1069B400AA0831463846FFF7D5F90B48FFF72DFCF6
:1069C400D8F8083053B101228DF800200C9A0592B2
:1069D400CDE90147CDE9036568469847204606B0EE
:1069E400BDE8F0811124F9E7887D00202DE9F0430A
:1069F400814687B014480E4615469846FFF704FCB6
:106A04000446F0B90746BD4215D10F48FFF705FC0F
:106A1400D9F808305BB102228DF800200022CDE9BC
:106A24000126CDE90325CDF8148068469847204611
:106A340007B0BDE8F08306EB0730FFF765F90137CF
:106A4400E1E71124F3E700BF887D002029DF7047C8
:106A540028DF704770B503689E6886B004460D460B
:106A64006EB114220021684602F0B4FDA3680593B8
:106A7400237901952BB1012B0DD06846B04706B0A0
:106A840070BD01238DF8003023690293E3680393FA
:106A940063690493F1E702238DF80030E3681B0374
:106AA4000293F5E70846704700207047024B187AB6
:106AB400003818BF01207047947D0020034B187ADA
:106AC4000122B0FA80F05A7440097047947D002086
